:020000040802F0
:100000000020001055660308C15D0308C35D0308A6
:10001000C55D0308C75D0308C95D03080000000053
:10002000000000000000000000000000CB5D03089D
:10003000CD5D030800000000CF5D0308B52503086F
:1000400065660308696603086D6603087166030840
:1000500075660308796603087D66030881660308F0
:1000600085660308896603088D66030891660308A0
:1000700095660308996603089D660308A166030850
:10008000A5660308A9660308AD660308B166030800
:10009000B5660308B9660308BD660308C1660308B0
:1000A000B3A7020883A702086BA70208C566030866
:1000B000C966030899690208CD660308D16603087A
:1000C000D5660308D9660308DD660308E166030800
:1000D000E5660308E966030805D80208ED6603082B
:1000E000F1660308F5660308F9660308FD66030870
:1000F0009BA702080167030805670308096703084F
:100100000D670308116703081567030819670308DB
:100110001D6703082167030825670308196A020899
:10012000296703082D67030831670308356703084B
:10013000396703083D6703084167030845670308FB
:10014000496703084D67030851670308D15D030839
:1001500055670308596703085D670308616703086B
:1001600065670308696703086D670308716703081B
:1001700075670308DB5D030879670308000000006A
:100180007D67030881670308DFF87C1A087810F0A0
:10019000BF0008700878C0F30010C0B2002812D168
:1001A000087850F010000870DFF8602ADFF8600A65
:1001B0000068C38D0A20434313601368DFF8300BD7
:1001C0000068C31813600878C0F34010C0B200285C
:1001D00012D1087850F020000870DFF8381ADFF8E4
:1001E000300A0068028C0A2042430A600A68DFF87D
:1001F000000B006882180A607047DFF80C1A087854
:1002000010F0EF0008700878C0F38010C0B200282A
:1002100012D1087850F040000870DFF8F029DFF8BC
:10022000F0090068C38D0A20434313601368DFF8A8
:10023000C00A0068C31813600878C0B2C009C0B211
:10024000002812D1087850F080000870DFF8C41937
:10025000DFF8BC090068C28C0A2042430A600A68C1
:10026000DFF88C0A006882180A60704710B5DFF862
:10027000841A0868008A002834D0DFF87C0A0278E3
:1002800012F0FE020270027812F0FD020270027893
:1002900012F0FB020270027812F0F7020270DFF82F
:1002A0005C2A1278012A04D1027852F0020202700C
:1002B0001EE0DFF84C2A1278012A04D1027852F0AD
:1002C0000402027014E0DFF83C2A1278012A04D1FB
:1002D000027852F0080202700AE0027852F001023D
:1002E000027005E0DFF8100A027812F0FE020270D8
:1002F000DFF8042A1078C0F34000C0B2002804D010
:100300000120DFF8041A08802EE01078C0F3800086
:10031000C0B2002804D00220DFF8EC19088023E0E6
:100320001078C0F3C000C0B2002804D00320DFF86A
:10033000D819088018E0DFF8D008027812F0F70228
:1003400002700020DFF8C02910800868D0F82E1055
:10035000002004F037FD0400DFF8840B0068828879
:100360002100002005F0D5FB10BD10B5DFF8841981
:100370000868008A002834D0DFF87C09027812F07F
:10038000FE020270027812F0FD020270027812F092
:10039000FB020270027812F0F7020270DFF86029A7
:1003A0001278012A04D1027852F0040202701EE091
:1003B000DFF850291278012A04D1027852F008029D
:1003C000027014E0DFF844291278012A04D102787F
:1003D00052F0010202700AE0027852F0020202704A
:1003E00005E0DFF81409027812F0FD020270DFF870
:1003F00008291078C0F38000C0B2002804D0022081
:10040000DFF8041908802DE01078C0F3C000C0B2F6
:10041000002804D00320DFF8F018088022E01078CC
:1004200010F00100002804D00020DFF8DC1808805C
:1004300018E0DFF8D407027812F0F702027000200B
:10044000DFF8C42810800868D0F83210002004F0CB
:10045000B9FC0400DFF8880A0068828821000020C7
:1004600005F057FB10BD10B5DFF888180868008A42
:10047000002834D0DFF88008027812F0FE02027003
:10048000027812F0FD020270027812F0FB02027094
:10049000027812F0F7020270DFF868281278012A59
:1004A00004D1027852F0080202701EE0DFF85C28E6
:1004B0001278012A04D1027852F00102027014E08D
:1004C000DFF838281278012A04D1027852F00202AB
:1004D00002700AE0027852F00402027005E0DFF8D0
:1004E0001808027812F0FB020270DFF80C2810786E
:1004F00010F00100002804D00020DFF80C1808805C
:100500002EE01078C0F34000C0B2002804D00120D3
:10051000DFF8F417088023E01078C0F3C000C0B201
:10052000002804D00320DFF8E017088018E0DFF887
:10053000D806027812F0F70202700020DFF8C82710
:1005400010800868D0F83610002004F03BFC04004E
:10055000DFF8580B006882882100002005F0D9FAE6
:1005600010BD10B5DFF88C170868008A002834D059
:10057000DFF88407027812F0FE020270027812F0AF
:10058000FD020270027812F0FB020270027812F093
:10059000F7020270DFF874271278012A04D102787A
:1005A00052F0010202701EE0DFF850271278012A93
:1005B00004D1027852F00202027014E0DFF8402702
:1005C0001278012A04D1027852F0040202700AE083
:1005D000027852F00802027005E0DFF81C0702788A
:1005E00012F0F7020270DFF81027107810F0010007
:1005F000002804D00020DFF8101708802EE01078C3
:10060000C0F34000C0B2002804D00120DFF8F81683
:10061000088023E01078C0F38000C0B2002804D026
:100620000220DFF8E416088018E0DFF8DC05027825
:1006300012F0F70202700020DFF8CC261080086864
:10064000D0F83610002004F0BDFB0400DFF85C0A8F
:10065000006882882100002005F05BFA10BD70B4AC
:10066000030000200024DFF8486A32881D00ADB284
:10067000AA4211D21D003288AD1A2C000A002500B2
:1006800092B2ADB2AA4203D232888A18328007E011
:100690003288A218328003E000223280012210004A
:1006A00040B270BC704710B4DFF8081A08880128FF
:1006B0000CD1DFF85405407810F00100002802D07A
:1006C0000A200880DAE002200880D7E008880A289B
:1006D0000ED1DFF8E409827F120602D50B200880D4
:1006E000CCE0807F800640F1C9800C200880C5E006
:1006F00008880B2812D1DFF8C4090278012A02D138
:1007000004200880BAE00078022840F0B780012079
:10071000DFF8AC29108002200880AFE008880C28A0
:1007200012D1DFF898090278012A06D10120DFF8FA
:100730009029108002200880A0E00078022840F074
:100740009D800420088099E00888022808D1DFF8FD
:1007500070090088002840F09180032008808DE017
:100760000888032857D1DFF854090278012A27D1D5
:10077000DFF89424107850F0800010700420088076
:10078000DFF84019C8200860DFF83C390C681868A9
:1007900004190C60107850F040001070107810F0C0
:1007A000EF001070DFF86414DFF864040068C28D95
:1007B0000A2042430A600A68186882180A605DE0ED
:1007C000007802285AD1DFF84024107850F0200039
:1007D000107004200880DFF8EC18C8200860DFF8EB
:1007E000E8380C68186804190C60107810F0BF0025
:1007F0001070107850F010001070DFF81014DFF84F
:1008000010040068C28D0A2042430A600A68186812
:1008100082180A6032E0088804280AD1DFF8A408A8
:100820000068DFF8A4281268904227D205200880CB
:1008300024E0088805281CD1DFF8CC23507810F07C
:100840000100002812D1507850F001005070DFF8FC
:10085000C423DFF8BC030068038C0A204343136001
:100860001368DFF864080068C31813600620088066
:1008700004E00888062801D10020088010BC7047D9
:100880002DE9F0414FF4C87634000025DFF84078B8
:100890002A002100380005F041FA0027DFF83488EB
:1008A0003A003100404605F039FADFF82C08002103
:1008B0000170002141700020DFF82018087000202E
:1008C000DFF81C1808700020DFF818180870BDE861
:1008D000F0812DE9FE4F00208DF8000000200290ED
:1008E000502001900026DFF80048250032000199D1
:1008F000280005F013FA78275FF00008DFF8EC57BE
:1009000042463900280005F009FA5FF050095FF00F
:10091000000ADFF8DC57AB4652464946584605F018
:10092000FDF9BB4A1068D0F806101068008A091A51
:10093000DFF8C037002018805FF0000C6046C0B2BE
:10094000142845DADFF8B0673768E6465FFA8EFEAE
:1009500057F82E00002808D130686746FFB200EB38
:100960004700B0F8A00000282FD030686746FFB2DB
:1009700000EB8707386D002827D13768E6465FFA15
:100980008EFE57F82E001F8844F82700306867460F
:10099000FFB200EB4700B0F8A000814208DA3068EF
:1009A0006746FFB200EB47000F007F1EA0F8A07063
:1009B00030686646F6B200EB4600B0F8A0001E882C
:1009C00045F826001888401C18801CF1010CB5E77A
:1009D00000252800C0B21E8880B2B0420DD2280087
:1009E000C0B254F820001668B6F95E6080192E0077
:1009F000F6B244F826006D1CEBE71888002803D0F7
:100A00000220DFF8F8261070BDE8F78F2DE9F04FCF
:100A100085B000208DF8040000200090782004901C
:100A200000200390DFF8D8462500039A0499280097
:100A300005F074F9782002905FF00009DFF8C456E1
:100A40002E004A460299300005F068F95FF03C0A32
:100A50005FF0000BDFF8B06637005A4651463800A9
:100A600005F05CF9A34F3868D0F82A10DFF8A081B0
:100A7000D8F80000C089091A00913868008B022854
:100A800004DBD8F80000B0F9609003E0D8F800006B
:100A9000B0F95E90DFF85CA60020AAF80000002103
:100AA0000800C0B2142854DADFF84C2613688C46CC
:100AB0005FFA8CFC53F82C00002808D110680B005A
:100AC000DBB200EB4300B0F8A00000283FD0106874
:100AD0000B00DBB200EB8303186D002837D01368DE
:100AE0008C465FFA8CFC53F82C00BAF8003044F8BE
:100AF000230010680B00DBB200EB8303186DBAF81B
:100B0000003045F82300009813688C465FFA8CFC8F
:100B100003EB4C03B3F8A030984208DA10680B00DE
:100B2000DBB200EB4300009B5B1EA0F8A030106816
:100B30000A00D2B200EB4200B0F9A000BAF80020DF
:100B400026F81200BAF80000401CAAF80000491C60
:100B5000A6E75FF0000B5846C0B2BAF8001080B2AA
:100B600088422ED25846C0B254F8200019EB00003B
:100B70005946C9B244F821005846C0B254F8201072
:100B8000002004F01FF95946C9B244F82100584624
:100B9000C0B255F82010002004F014F95946C9B22B
:100BA00045F821003868008B002807D1D8F80000EC
:100BB000B0F942005946C9B226F811001BF1010BE9
:100BC000C9E7BAF80000002803D00120DFF82C158F
:100BD000087005B0BDE8F08F80B505F06FFC002807
:100BE00005D1DFF8D40490F86500C0060AD41320BC
:100BF000DFF81815A1F84006DFF8BC04417851F081
:100C00001001417001BD0000F08B0020308C0020ED
:100C1000E08C0020288C00202DE9F0414FF4C876AC
:100C200034000025DFF8E8742A002100380005F0C0
:100C300075F80027DFF8DC843A003100404605F003
:100C40006DF8FFF71DFEDFF8D0040168498F022917
:100C500027D1DFF8A8440020207026480068008BC8
:100C60000028022803D9C01E012812D91FE0DFF88E
:100C70004804C07AC0B2C009C0B2002804D0002025
:100C80002070FFF7C3FE03E000202070FFF721FE75
:100C90000DE0FFF7BBFE2078002801D1FFF719FE19
:100CA00005E00068408F032801D1FFF795FF002081
:100CB000DFF8681408700020DFF864140870002062
:100CC000DFF8601408600B480068008B002807D02C
:100CD00083480068C2880021012004F01AFF05E063
:100CE000DFF8E803817811F0FE018170BDE8F08142
:100CF000D48C0020D88C0020168D00203B8D002045
:100D00003C8D00203D8D00201E8D00203A8D00205E
:100D100038B50025DFF81014087810F0010000281D
:100D20002BD0DFF808040068DFF89C1309688842BC
:100D300080F0B880DFF8F8130888002840F0B2800F
:100D4000DFF88803027852F0080202700020DFF812
:100D5000E423108001200880DFF8DC030068D0F86D
:100D60002E10002004F02EF804005D4800688288F0
:100D70002100002004F0CDFE94E00878C0F340008C
:100D8000C0B200282BD0DFF8B4030068DFF83813B6
:100D90000968884280F08680DFF89413088800286C
:100DA00040F08080DFF82403027852F008020270DD
:100DB0000120DFF88023108001200880DFF878030D
:100DC0000068D0F83210002003F0FCFF0400444813
:100DD000006882882100002004F09BFE62E0087811
:100DE000C0F38000C0B2002827D0DFF854030068A9
:100DF000B5490968884255D2DFF8341308880028BD
:100E000050D1B248027852F0080202700220DFF896
:100E10002423108001200880DFF81C030068D0F82C
:100E20003610002003F0CEFF04002D4800688288B1
:100E30002100002004F06DFE34E00878C0F3C0000B
:100E4000C0B2002823D0BF4800689F490968884283
:100E500028D2B7490888002824D19C48027852F04B
:100E6000080202700320B34A108001200880B248B3
:100E70000068D0F83610002003F0A4FF04001848E2
:100E8000006882882100002004F043FE0AE0AE489A
:100E900000688D490968884204D28748417951F039
:100EA00008014171A2490888002816D0A748007897
:100EB00010F0010000280AD1A5480068824A126893
:100EC00090420AD2002008800120050005E07E48FB
:100ED000006810F5FA709E4908602800C0B232BD63
:100EE000DC8C00200300934201DA9A1800E09A1A81
:100EF0008B4201DAC91A00E0591A914201DA002046
:100F000000E001207047F8B50025924E30780128A6
:100F10000FD173480078002800F0C6806D48006843
:100F20008D49098890FBF1F08C49086002203070EF
:100F3000BAE03078022840F082800020040068483F
:100F40000078002833D105F089FC614A624B93F99F
:100F5000011002EB810151F8041C401A7E490F88F0
:100F600090FBF7F005007E4893F9013002EB830215
:100F700052F8042C02600268098892FBF1F10160CA
:100F8000012D16DB644800688189002003F01AFFF8
:100F90000700AF4208DA0320307000204F49087084
:100FA000002004F043FC04E00120040001E00120E3
:100FB00004002000C0B2002821D06448007810F05E
:100FC000010000280FD1674800683F49096888423E
:100FD00015D211204D49A1F840063748417851F00B
:100FE000100141700BE05F494B480068428E0A20B7
:100FF00042430A600A683448006882180A604E4A10
:101000001068D0F8221044480068C08B091A0D00FF
:10101000554801680868854246DA1068D0F8221001
:10102000002003F0CFFE0500A521002004F08CFB7A
:101030002900002004F093FC0420307034E0307864
:10104000032808D14148007810F0010000282BD176
:101050000020307028E0307804280DD13B4800781B
:1010600010F0010000281FD11748006864303D4986
:1010700008600520307017E03078052814D1394811
:1010800000681149096888420ED20020134908708F
:1010900000203070324E05F0E1FB306030682E49A0
:1010A000098890FBF1F03060F1BD0000DC8C00207D
:1010B000248D0020228D0020B0440010538D00208C
:1010C0001C8D0020248C0020D48C0020F08B00206C
:1010D00034850020C4860020268D0020528D0020FB
:1010E000548D0020558D0020848A002054880020D3
:1010F000D48A0020208D0020FC8C0020438D00200D
:10110000CC88002044890020248B0020002000107F
:1011100014820020A4830020E08C0020468D002053
:10112000478D00203C8C0020168D0020C08B0020B5
:10113000288D00201E8D0020D88C0020088C0020D7
:101140000C8C0020108C00201C8C00204C460010C1
:10115000448C00204F8D0020148D0020348C002002
:10116000388C0020488C0020EC8C00202DE9F84FB2
:101170008AB05FF0000B0020019000200290002454
:1011800000250026DFF8E07C3878012831D00228DD
:1011900000F02681032800F02E81042800F0AB81A6
:1011A000052800F0BB81062800F0C381072800F065
:1011B0003582082800F04482092800F06C830A2850
:1011C00000F09A830B2800F0A8830C2800F0AB8570
:1011D0000D2800F0D4850E2800F0DB85C72821D02B
:1011E000C8283ED0C9285CD0CA2800F0838000F00F
:1011F000EFBDDFF8788C002004F0BAFAC8F80000E0
:10120000D8F80010DFF8680C008841438B46584638
:1012100005F027FB0020DFF85C1C0870C720387041
:1012200000F0D6BDFFF72CFB0120DFF84C1C087046
:101230000321002004F043FA6422A521002004F0D9
:101240006AFA0022DFF8340C00684188002004F0BC
:1012500000FBC82038700120DFF8241C087000F063
:10126000B7BDFFF750FEDFF8180C0078002816D144
:101270000020DFF8041C08700020DFF8081C08704C
:101280000020DFF8041C0870002004F0CFFADFF81B
:10129000FC0B017811F0F7010170C920387000F0E3
:1012A00097BDDFF8EC0B00210170DFF8E81B0A7C2A
:1012B000120703D5027852F00102027091F86520FE
:1012C000520703D5027852F00202027091F86520AD
:1012D000D20703D5027852F00402027091F864102C
:1012E000890603D5017851F008010170CA203870D1
:1012F00000F06EBDDFF8A00B0068008B032804D15E
:101300000120DFF8981B088003E00020DFF88C1B29
:101310000880DFF87C0B0178C9071CD5DFF8740B57
:1013200090F86500000704D50220DFF8741B0870F0
:1013300003E00120DFF8681B08705FF010085FF021
:101340000009DFF860AB4A464146504604F0E6FC2F
:101350000220387042E00178890711D50220DFF8B9
:10136000401B08705FF010085FF00009DFF834AB35
:101370004A464146504604F0D1FC052038702DE025
:101380000178490711D50220DFF8141B08705FF0BF
:1013900010085FF00009DFF80CAB4A4641465046A2
:1013A00004F0BCFC0820387018E00178090711D55A
:1013B0000120DFF8EC1A08705FF010085FF00009F8
:1013C000DFF8E0AA4A464146504604F0A7FC0B204D
:1013D000387003E0002101700020387000F0F8BC84
:1013E00001F0A8FFDFF8B40A0088002801D103202B
:1013F000387000F0EDBCDFF8A00A0168098B022903
:1014000009DADFF8A40A0168B1F962100D0000687A
:10141000008A060026E00068008B022809D1DFF868
:10142000880A0168B1F964100D000068C0890600DF
:1014300018E0DFF8600A90F86500000709D5DFF8CA
:10144000680A0168B1F964100D000068C0890600DF
:1014500008E0DFF8540A0168B1F962100D00006875
:10146000008A0600DFF8409AD9F80000B0F844007E
:1014700004002800D9F80010C98F411811F5FA713D
:10148000D9F80000B0F94E00091A00910099002027
:1014900003F098FCDFF8141A096808188046DFF892
:1014A00004AACAF800802800D9F80010C98F401A91
:1014B000B0F5FA7081464946002003F083FCDFF85E
:1014C000F019096808188346CAF804B0CAF80C4035
:1014D000CAF80860042038700120DFF8D8190870B5
:1014E000DFF8980900688289DAF80010002004F01B
:1014F00010FB00F06DBCDFF8AC0903F0D1F9DFF8A8
:10150000B4090078002807D1DFF88409017811F0C8
:10151000FE010170CA20387000F05ABC01F00AFFC9
:10152000DFF878090088002801D10620387000F023
:101530004FBCDFF864090068008B022809DADFF885
:1015400068090168B1F962100D000068008A0600A0
:1015500008E0DFF854090168B1F964100D00006873
:10156000C0890600DFF850090068008C04002900DB
:10157000DFF83499D9F80000B0F94E00091AD9F80B
:101580000020D2F84A00091A00910099002003F0C7
:1015900019FCDFF81819096808188046CDF808808A
:1015A0002800D9F80020D2F846100818814649468C
:1015B000002003F007FC8246DFF8F408006810EB17
:1015C0000A0ACDF804A0002004F0D2F88346029A5B
:1015D00001995846FFF786FC012806DBDFF8C408AE
:1015E000029901600199416005E0DFF8B8080199AE
:1015F000016002994160DFF8AC08C4608660072191
:1016000039700121DFF8AC281170DFF87018096813
:101610008A890168002004F07CFAD9E3DFF88408A5
:1016200003F03EF9DFF88C080078002807D1DFF8D6
:101630006008017811F0FD010170CA203870C7E31D
:1016400001F078FEDFF854080088002840F0C083DD
:10165000DFF844080068008B022809DADFF8480840
:101660000168B1F962100D000068008A060008E008
:10167000DFF834080168B1F964100D000068C08912
:101680000600DFF834080068C08B04002900DFF88A
:101690001888D8F80000B0F94E00091AD8F80020D0
:1016A000D2F84A00091A00910099002003F08AFB41
:1016B000DFF8F817096808180090009802902800D1
:1016C000D8F80020D2F846100818009000990020A1
:1016D00003F078FBDFF8D817096808180090009825
:1016E00001905020099000200890DFF8D087C14673
:1016F000089A0999484604F011FB782007900020C9
:101700000690DFF8BC97CA46069A0799504604F03F
:1017100005FB5020059000200490DFF8A8A7CDF825
:101720000CA0049A0599039804F0F8FA0398002095
:1017300004F01EF800900220DFF88C170880029A4F
:1017400001990098FFF7CEFB012830DBDFF868171E
:101750000868808C002803D00120DFF8182710705B
:101760000968886900900099002003F02BFB8346EC
:101770000298C8F80000D8F80000C9F80000D9F8AD
:101780000000B0EB0B00C9F80000CAF80040019857
:10179000C9F80400D9F80400C8F80400D8F8040017
:1017A0001BEB0000C8F80400CAF804402FE0DFF883
:1017B00008170868808C002803D00220DFF8B426C0
:1017C00010700968886900900099002003F0FAFA07
:1017D00083460198C8F80000D8F80000C9F8000056
:1017E000D9F800001BEB0000C9F80000CAF800405F
:1017F0000298C9F80400D9F80400C8F80400D8F821
:101800000400B0EB0B00C8F80400CAF80440DFF88D
:10181000840690F8650080072DD50320DFF8A81610
:101820000880D8F80400C8F80800D9F80400C9F8FE
:101830000800DAF80400CAF80800D8F80410D8F84C
:1018400000004118C8F80410D8F80400022190FBE9
:10185000F1F0C8F80400D9F80410D9F800004118D4
:10186000C9F80410D9F80400022190FBF1F0C9F87E
:101870000400CAF80440DFF850060088DFF84C1670
:1018800008700020DFF8E41C087009203870DFF8C9
:10189000140686609CE2DFF8D40C90F90010DFF8A3
:1018A0002C2692F90020914208DBDFF8E40501784C
:1018B00011F0FB010170CA20387089E2DFF8E415ED
:1018C000DFF8F82590F9003052F823200A60DFF89D
:1018D000F02590F9003052F823204A60DFF8E42523
:1018E00090F9000052F82000C8600120DFF8C4150C
:1018F00008700A2038706BE2DFF8A80502F0D0FF0C
:10190000DFF8B0050078002806D1DFF8600C017818
:10191000491C0170092038705AE201F00BFDDFF814
:101920007C050088002840F05382DFF86C050068D1
:10193000008B022809D1DFF870050168B1F9641045
:101940000D000068C089060008E0DFF85C0501684A
:10195000B1F962100D000068008A0600DFF8580532
:101960000068808B04002900DFF83C85D8F800006F
:10197000B0F94E00091AD8F80020D2F84A00091A26
:1019800000910099002003F01DFADFF82015096886
:1019900008180090009802902800D8F80020D2F88B
:1019A0004610081800900099002003F00BFADFF8A9
:1019B00000150968081800900098019050200890C0
:1019C00000200790DFF8F484C146079A089948463A
:1019D00004F0A4F97820069000200590DFF8E09448
:1019E000059A0699484604F099F950200490002081
:1019F0000390DFF8D094CA46039A0499504604F045
:101A00008DF9002003F0B4FE0090DFF8BCA40020A4
:101A1000AAF80000029A01990098FFF763FA0128DA
:101A20005DDBDFF8940401684869009000990020AC
:101A300003F0C8F983460298BAF8001048F821006C
:101A4000BAF8000049F82040BAF80000401CAAF893
:101A50000000DFF8400490F86400000630D5D8F8A4
:101A60000000BAF8001048F82100BAF8000058F851
:101A70002000B0EB0B00BAF8001048F82100BAF8CB
:101A8000000049F82040BAF80000401CAAF8000005
:101A90000198BAF8001048F82100BAF8000058F888
:101AA00020001BEB0000BAF8001048F82100BAF83B
:101AB000000049F82040BAF80000401CAAF80000D5
:101AC0000198BAF8001048F82100BAF8000049F867
:101AD0002040BAF80000401CAAF800005AE0DFF8E5
:101AE000D8030168486900900099002003F06AF962
:101AF00083460198BAF8001048F82100BAF80000AF
:101B000049F82040BAF80000401CAAF80000E1485B
:101B100090F8640000062FD50198BAF8001048F834
:101B20002100BAF8000058F820001BEB0000BAF8BA
:101B3000001048F82100BAF8000049F82040BAF82F
:101B40000000401CAAF800000298BAF8001048F8FB
:101B50002100BAF8000058F82000B0EB0B00BAF8EA
:101B6000001048F82100BAF8000049F82040BAF8FF
:101B70000000401CAAF800000298BAF8001048F8CB
:101B80002100BAF8000049F82040BAF80000401CD3
:101B9000AAF80000BF4890F86410490640F1B680EA
:101BA00090F86400000676D5BAF8000008EB8000D3
:101BB00050F8080CBAF8001048F82100BAF80000F4
:101BC00009EB800050F8080CBAF8001049F8210021
:101BD000BAF8000008EB800050F8081CBAF80000C2
:101BE00008EB800050F8100C4118BAF8000008EB20
:101BF000800040F8081CBAF8000008EB800050F89C
:101C0000080C022190FBF1F0BAF8001008EB8101FA
:101C100041F8080CBAF80000401CAAF80000BAF815
:101C2000000008EB800050F8080CBAF8001048F8E3
:101C30002100BAF8000009EB800050F8080CBAF84F
:101C4000001049F82100BAF8000008EB800050F8B5
:101C5000081CBAF8000008EB800050F8100C41187E
:101C6000BAF8000008EB800040F8081CBAF8000041
:101C700008EB800050F8080C022190FBF1F0BAF854
:101C8000001008EB810141F8080CBAF80000401C74
:101C9000AAF800003AE0BAF8000008EB800050F81B
:101CA000040CBAF8001048F82100BAF8000009EB5B
:101CB000800050F8040CBAF8001049F82100BAF876
:101CC000000008EB800050F8041CBAF8000008EB94
:101CD000800050F8080C4118BAF8000008EB8000AA
:101CE00040F8041CBAF8000008EB800050F8040C1F
:101CF000022190FBF1F0BAF8001008EB810141F8E5
:101D0000040CBAF80000401CAAF80000BAF8000061
:101D10006E4908700020DFF8541808700C203870E5
:101D20006048866054E0DFF8441891F90000674A83
:101D300092F90020904207DB5548017811F0F70135
:101D40000170CA20387043E056485C4A91F900306F
:101D500052F8232002605B4A91F9001052F82110DA
:101D6000C160464909688A890168002003F0D1FEF4
:101D70000D2038700020DFF8CC19086028E0012021
:101D80004C4908704748C06802F02AF80E203870A5
:101D90001EE0DFF81081DFF8AC99D9F80010D8F810
:101DA000080002F033FC4348007800280FD1D9F82E
:101DB0000000D8F80C10884207D3DFF8B00701788C
:101DC000491C01700C20387001E00D203870FFE7CD
:101DD0000BB0BDE8F08F2DE9F04104000D000026A6
:101DE000DFF864190878002815D1012008702F0049
:101DF000DFF85889B8F8000001281DD12A4800688A
:101E0000B0F96A10002002F0DDFFC01907000220BF
:101E1000A8F8000010E000200870A04622480068E2
:101E2000B0F96A10002002F0CDFF0700B8EB0707F9
:101E30000120DFF8181908800021002003F03FFC82
:101E40006421002003F053FC6421002003F07CFC9B
:101E50000A4800684189002003F03DFC3900002059
:101E600003F0A0FCBDE8F081508D0020208C002004
:101E7000148D0020448D0020528D0020DC8C002029
:101E80004F8D0020548D0020558D0020F08B0020B8
:101E90004E8D0020B0440010D88C0020228D0020F0
:101EA000538D0020948B0020E08C0020388C002083
:101EB000348C00204B8D0020E48C0020848A00208C
:101EC00054880020D48A0020208D0020468D0020D8
:101ED000F8B5DFF87C58287801281BD1DFF87408A2
:101EE0000068DFF874180968884280F03D8300209C
:101EF000DFF8681808600020DFF864180860002028
:101F0000DFF8441808700020DFF84018088002202D
:101F1000287029E3287802281DD1DFF8500690F9AF
:101F20000000DFF8381C91F90010884280F21C8311
:101F300014202870DFF8F00A017811F0F701017021
:101F4000DFF8140800683230DFF81018086000204D
:101F500003F06CFC08E3287814281AD1DFF8CC0AC7
:101F6000007810F00100002807D0DFF8EC070068C7
:101F70006430DFF8E8170860F6E2DFF8E007006891
:101F8000DFF8D4170968884280F0EE8203202870B9
:101F9000EAE22878032834D10021DFF8BC07006882
:101FA000DFF8B02712689042C0F0DE82DFF8800AC6
:101FB0000068008B002812D0DFF8780A0078C0F3A0
:101FC000C000C0B2002814D0DFF8600A0078C0F367
:101FD0004000C0B200280CD10120010009E0DFF868
:101FE000540A4078C0F34010C0B2002801D001204C
:101FF00001000800C0B2002800F0B682042028705A
:10200000B2E22878042827D1DFF82C0A0168DFF82B
:102010005C25DFF8E40A92F9003050F823004118FB
:102020000C00DFF8180A0068C08C002809D0DFF81F
:10203000CC0A92F9001050F82100022190FBF1F037
:102040000419DFF8BC0A006882892100002003F02F
:1020500060FD0520287087E22878052857D1DFF831
:10206000CC09007810F00100002806D0DFF8E8065F
:1020700000683230DFF8E4160860DFF8E006006838
:10208000DFF8D4160968884280F06E82DFF8A00974
:102090000068008B002822D0DFF8680A0068C68933
:1020A0003100012002F08EFE0400DFF8540A0068BF
:1020B000C2882100012003F02CFD0020DFF8A01AC7
:1020C0000880DFF8A00ADFF8A41491F9001030F9B5
:1020D0001100DFF88C1608603C20287044E2DFF81D
:1020E0004809817851F001018170DFF87406DFF84A
:1020F000741ADFF8782492F9002031F91210016087
:102100000068DFF85C1A0880072028702CE2287825
:102110003C280BD1DFF824090068C08C002802D0CD
:102120003D20287020E2062028701DE228783D28F6
:1021300021D1DFF8F8080078C0F34000C0B20028D1
:1021400040F01282DFF8BC090068C089DFF8EC18A3
:102150000968498D46183100012002F033FE040061
:10216000DFF89C09006802892100012003F0D1FCFE
:102170003E202870F8E128783E2847D1DFF8AC08E7
:102180000078C0F34000C0B200280FD0DFF8CC15B3
:10219000DFF870090068428D0A2042430A600A682D
:1021A000DFF8B405006882180A60DDE1DFF8AC05ED
:1021B0000068DFF8A4150968884280F0D581DFF84F
:1021C00078080168DFF83009DFF8A02392F90020D1
:1021D00050F8220041180C000021002003F06FFA93
:1021E0006421002003F083FA6421002003F0ACFA9C
:1021F000DFF80C0900684189002003F06CFA210027
:10220000002003F0CFFA06202870ADE128780628D8
:102210003AD1DFF81808007810F00300032800F026
:10222000A381DFF83C19DFF838050A8803689A4271
:1022300027D200680E88861BDFF8C8281068B0F81F
:102240004200B04206DA0B881068B0F84200C318AA
:102250000B8002E00888301808801068C08909885F
:102260000F18072028703900012002F0ABFD040090
:10227000DFF88C08006802892100012003F049FC86
:1022800072E10A2028706FE1287807283BD10021ED
:10229000DFF89C070068008B00280AD0DFF88C0765
:1022A0000078C0F34000C0B200280CD1012001002A
:1022B00009E0DFF880074078C0B2C009C0B200284A
:1022C00001D0012001000800C0B200280BD0DFF8C7
:1022D00068090068DFF880241268904280F0448129
:1022E0000820287040E1DFF85029DFF8180800685E
:1022F000438D0A20434313601368DFF85C040068D1
:10230000C318136030E12878082819D1DFF82807AE
:1023100006689649DFF8E00791F9002050F822009E
:1023200086193700DFF8D40791F9001050F8210022
:10233000C71939003000FFF74EFD0920287013E15E
:102340002878092822D1DFF8E406007810F001008F
:1023500000280BD1DFF804040068DFF8FC130968DB
:10236000884280F001815A202870FDE0DFF8EC13EC
:10237000DFF890070068428E0A2042430A600A682C
:10238000DFF8D403006882180A60EDE028785A2844
:1023900033D1DFF89C060068008B00282AD0062085
:1023A0002870DFF8A803018801290FD1DFF854074E
:1023B0000068B0F96A502900002002F003FD040013
:1023C000DFF8C809016A61180162CDE000880228BF
:1023D00040F0CA80DFF82C070068B0F96A50290085
:1023E000002002F0EFFC0400DFF8A009016A091BDD
:1023F0000162B9E00A202870B6E028780A2832D1B4
:10240000DFF82806007810F0030F40F0AD80DFF809
:102410002C060068C08C002822D0DFF81C0601685A
:10242000DFF8D406514A92F9002050F822004118F2
:102430000C000021002003F042F96421002003F089
:1024400056F96421002003F07FF9DFF8B406006834
:102450004189002003F03FF92100002003F0A2F998
:102460006420287080E02878642812D1DFF8BC0549
:10247000007810F0030F77D100200400DFF8800609
:102480000068C2882100012003F043FB652028700A
:102490006AE0287865281DD1DFF89015087810F0DB
:1024A000030F61D1DFF888050068008B002808D091
:1024B0000878C0F34000C0B2002855D10B20287026
:1024C00052E0DFF86405817811F0FE0181700B2085
:1024D000287049E028780B282FD1DFF854050068D0
:1024E000008B00280AD0DFF84C050078C0F3C0004C
:1024F000C0B2002838D00C20287035E0DFF8340551
:102500004078C0F34010C0B2002808D0934800685B
:1025100091490968884227D20C20287024E08F490D
:10252000DFF8E0050068028E0A2042430A600A686C
:102530008948006882180A6016E028780C2813D1B0
:102540000A480178491C017000217F4A117090F9F6
:102550000000DFF8081691F90010884202DA032023
:10256000287001E000202870F1BD0000478D002098
:1025700038B5DFF8384A2078012808D0022812D070
:10258000032831D0042845D00A2864D066E0DFF85B
:1025900074050068408B002802D00220207001E002
:1025A000032020705AE0DFF8080A00686A490968C9
:1025B000884218D2FEF764F90120DFF8F819087094
:1025C0000321002003F07BF86422A521002003F002
:1025D000A2F80022DFF8280500684188002003F0F7
:1025E00038F90420207039E0DFF8C40900685A493E
:1025F000096888420DD2DFF8780A0068DFF83814DD
:102600000860DFF8700A0088DFF8F41B08700A2001
:10261000207023E0DFF8600A007800281AD0002537
:102620000020DFF890190870002003F0FFF80A205E
:102630002070DFF8480A0068DFF8441A098890FB28
:10264000F1F0DFF8F4130860DFF8281A0988DFF8E2
:10265000B02B117002E000202070FFE731BD10B5F3
:10266000DFF848492078012808D002281BD0032829
:1026700031D004283CD00A285AD061E0364800689E
:10268000DFF82C19096888425AD3DFF8780400680B
:10269000808B002804D0FEF7F3F80220207001E0C0
:1026A000032020704CE00120DFF808190870032196
:1026B000002003F004F86422A521002003F02BF889
:1026C0000022DFF83C0400684188002003F0C1F8D4
:1026D0000420207034E00020DFF8D8180870DFF8FC
:1026E00090090068DFF8501308600A20207027E086
:1026F000DFF884090078002819D00020DFF8B4182A
:102700000870002003F092F8DFF81C03017811F044
:10271000F70101700A202070DFF860090068DFF817
:102720006019098890FBF1F0DFF80C13086007E0EE
:10273000BE48007810F00100002801D10020207070
:1027400010BD0000188C0020458D00202A8D00202F
:10275000518D0020288C0020D48C00204C8C00202F
:10276000548C002070B50024DFF8980A0078042803
:1027700003D10A20DFF8901A0870DFF88C5A287805
:1027800001280ED10020AE490870DFF82408006847
:10279000DFF8781A0968884280F0458102202870A5
:1027A00041E12878022822D1A54890F90000DFF8FD
:1027B000AC1391F90010884280F2358164202870B2
:1027C0009948017811F0F7010170DFF8400A0068BC
:1027D0003230DFF83C1A08609448007810F00100AD
:1027E000002800F02081002003F020F81BE1287869
:1027F000642819D18D48007810F0010000280BD111
:10280000DFF80C0A0068DFF8041A0968884280F0D3
:102810000A810320287006E1DFF8F00900686430BF
:10282000DFF8EC190860FEE02878032827D10021A2
:102830007F480068008B002810D07E480078C0F3E5
:10284000C000C0B2002812D078480078C0F3400021
:10285000C0B200280BD10120010008E07548407883
:10286000C0F34010C0B2002801D0012001000800D0
:10287000C0B2002800F0D78004202870D3E0287868
:1028800004281BD1DFF8A40A6D4991F9001050F813
:102890002110002002F096FA674909680818040020
:1028A0009748006882892100002003F032F9052052
:1028B00028700020DFF8781A0860B4E0287805282E
:1028C0000FD1DFF8CC0A5E4991F9001050F82100D1
:1028D00001F086FA062028700120DFF8B81A087087
:1028E000A1E0287806281FD1DFF8446A31688548BE
:1028F0000068008A01F08AFEDFF8980A0078002854
:1029000040F091803068DFF8881A4D4A92F9002033
:1029100051F82210884204D307202870002030602C
:1029200081E0052028707EE02878072810D14448EF
:102930000178491C017090F90000884991F9001054
:10294000884202DB002028706DE0042028706AE0D5
:1029500028780A2814D1354E3078C0F34000C0B230
:10296000002802D0012002F061FF307810F0010051
:10297000002802D0002002F059FF0B20287052E0FE
:1029800028780B282DD12948007810F0030F4AD160
:1029900027480068008B002812D126484078C0B232
:1029A000C009C0B2002805D11F48807810F001008E
:1029B000002813D01C48817811F0FE0181700DE0D1
:1029C0001C480078C0F3C000C0B2002806D14C48B3
:1029D000006802890021012003F09BF80C20287078
:1029E00021E028780C281ED111480068008B0028AF
:1029F00009D110484078C0F34010C0B2002812D06E
:102A0000002028700FE009480078C0F34000C0B2F1
:102A1000002808D107480078C0F3C000C0B20028E1
:102A200001D00020287070BDF08B00204C460010B3
:102A3000D88C0020D88B0020348C0020E48C00201F
:102A4000478D002038B5DFF8AC5A2878012827D107
:102A50002C480068808B00280ED0002002F088FEF1
:102A6000DFF80C160860DFF81816098848430400E0
:102A7000200003F0F6FE0CE0DFF87C0A0168D1F8D4
:102A80002E0004002100002002F09CF9DFF8E01580
:102A90000860022028700120DFF8101508702AE075
:102AA0002878022809D1FFF7DAFDDFF80005007861
:102AB000002820D1032028701DE02878032807D1A2
:102AC000DFF8E8040078002815D10420287012E00F
:102AD0002878042804D103F0D9FC052028700AE0E6
:102AE0002878052807D103F07AFD03F0EBFC0028D5
:102AF00001D00020287031BDCC88002044890020FE
:102B0000DC8C0020E08C002010B50024DFF8E80900
:102B10000068008B002813D0DFF8E0090078C0F3CC
:102B2000C000C0B2002816D0DFF8D4090078C0F386
:102B30004000C0B200280ED1FEF7EAF804000AE017
:102B4000DFF8B8094078C0F34010C0B2002802D0C6
:102B5000FEF7DEF804002000C0B210BD468D002054
:102B6000248D0020248B002010B400200022DFF8E8
:102B700094391988002908D1DFF88C190B68196875
:102B8000002955D50121080052E01988012918D1E2
:102B9000DFF864190C68D4F8323044F62164A3429B
:102BA00046D30968D1F83230DFF86019CB181A0023
:102BB000DFF854190B681968914239D201210800D5
:102BC00036E01988022918D1DFF82C190C68D4F8DE
:102BD000363044F62164A3422AD30968D1F836304E
:102BE000DFF82819CB181A00DFF81C190B681968D0
:102BF00091421DD2012108001AE01988032917D13A
:102C0000DFF8F4180C68D4F8023044F62164A342CB
:102C10000ED30968D1F80230DFF8F018CB181A008B
:102C2000DFF8E4180B681968914201D2012108000D
:102C3000C0B210BC70470000508C002038B5002492
:102C4000DFF8CC58287801280AD1DFF8C8080068D6
:102C5000002802D00020287096E00220287093E01F
:102C6000287802281FD10021002002F028FD96229A
:102C70009621002002F04FFD0122DFF89C08006839
:102C80008088022190FBF1F0010089B2002002F05F
:102C9000E0FDDFF8780500683230DFF88018086062
:102CA0000320287070E0287803283ED1DFF84C0814
:102CB0000078C0F34000C0B200282BD1DFF85408E0
:102CC000006800280DD0DFF854080068DFF83C15D4
:102CD0000968884258D204202870002002F0A6FD1E
:102CE00052E0DFF8280500683230DFF8301808605D
:102CF000FFF73AFF04002000C0B2002844D00E20A5
:102D0000DFF8A41AA1F8400606202870002002F07F
:102D10008DFD39E00E20DFF8901AA1F8400606205C
:102D20002870002002F082FD2EE0287804281FD1B0
:102D3000DFF8CC07007810F0010000280AD1DFF896
:102D4000DC070068DFF8C414096888421CD201203F
:102D5000287019E0DFF8B4040168DFF8500A006851
:102D6000428E0A2000FB0211DFF8B00701600BE081
:102D70002878062808D1DFF88807007810F00100CD
:102D8000002801D16420287031BD00007845001072
:102D900080B5DFF8E00A4078C0F3C000C0B2002878
:102DA00000F00381DFF8D00A0168098D012900F0E5
:102DB000FC800168098D02293FD1DFF848070088AF
:102DC000002840F0F280DFF8B40A007810F001002B
:102DD000002800F0EA80DFF820070168D1F836000B
:102DE000DFF824170A68116800F59C4020308842FB
:102DF00080F0DB80DFF8880A0078012809D06B4872
:102E00000078012805D0DFF87C0A0078012840F01E
:102E1000CC800E20DFF89019A1F84006DFF8E0061C
:102E2000007810F00100002802D0002002F0FEFC23
:102E30000020DFF8241C0870B7E00068008D00282F
:102E400040F0B380DFF8BC160888002838D1DFF8DE
:102E50002C0A007810F00100002831D0DFF8980625
:102E60000168D1F83200DFF8A0160A68116800F591
:102E70009C402030884280F09880DFF8040A007877
:102E8000012809D049480078012805D0DFF8F40965
:102E90000078012840F089800E20DFF80C19A1F895
:102EA0004006DFF85C06007810F00100002802D030
:102EB000002002F0BBFC0020DFF89C1B087074E0CF
:102EC0000888012837D1DFF8B4090078C0F3400042
:102ED000C0B200282FD0DFF820060168D1F83600F4
:102EE000DFF824160A68116800F59C4020308842FB
:102EF0005BD2DFF88C090078012808D02B480078D5
:102F0000012804D0DFF87C09007801284DD10E207B
:102F1000DFF89418A1F84006DFF8E405007810F017
:102F20000100002802D0002002F080FC0020DFF821
:102F3000281B087039E00888022836D1DFF83C09E0
:102F40000078C0F38000C0B200282ED0DFF8A805BA
:102F50000168D1F80200DFF8B0150A68116800F5C1
:102F60009C402030884220D2DFF8140900780128E4
:102F700008D00E480078012804D0DFF8080900784E
:102F8000012812D10E20DFF82018A1F84006DFF842
:102F90007005007810F00100002802D0002002F037
:102FA00045FC0020DFF8B01A087001BD408D0020FC
:102FB000308C0020528D002030B40024DFF838051A
:102FC0000068D0F82A10DFF8E4271068C089091AD1
:102FD000DFF8883A1868C08B814203D20800401E8F
:102FE0001C68E0831868008C814203D20800401EF0
:102FF0001C682084DFF87C4894F86500000709D538
:103000001068B0F84400814204D20800401E1568E0
:10301000A5F844001068D0F806501068008A2D1AF0
:103020001068008F854203D22800401E116808876F
:103030001068008B854203D22800401E1168088367
:103040001868808B854203D22800401E1968888347
:1030500094F86500000709D41068B0F84400854270
:1030600004D22800401E1168A1F8440030BC70470B
:10307000208C0020208D0020548D0020C48600204C
:10308000148D002010B5DFF8F0070168098D0129C3
:103090001DD1DFF8E807017811F0FE010170DFF8BB
:1030A000C009017811F0F7010170DFF84C040068E5
:1030B000D0F82E10002001F085FE0400DFF858043F
:1030C000006882882100002002F023FD2EE00168C4
:1030D000098D02290DD1DFF82C140888002802D1AF
:1030E000FDF7C4F822E0088802281FD1FDF7BBF9DC
:1030F0001CE00068008D002818D1DFF8081408884B
:10310000002802D1FDF7B2F810E00888012802D1AA
:10311000FDF72BF90AE00888022802D1FDF7A3F990
:1031200004E00888032801D1FDF71BFA10BDDFF881
:10313000C8030068008A002861D1DFF83C170868DE
:10314000008D00281ED1DFF81809DFF830170A7843
:10315000037862F3000303700A78D2B2520803784E
:1031600062F3410303700A78D2B29208037862F3E3
:10317000820303700978C9B2C908427861F3410239
:1031800042703CE00868008D012818D1DFF8D008B3
:10319000DFF8E8160A78037862F3000303700A7810
:1031A000037862F3410303700A78037862F38203C1
:1031B00003700978427861F3410242701FE00868A9
:1031C000008D02281BD1DFF89808DFF8B0160A78C6
:1031D000037862F3000303700A78037862F3410313
:1031E00003700A78D2B29208037862F38203037004
:1031F0000978C9B28908427861F341024270704788
:10320000468D00204D8D00204C8D0020D48C002058
:10321000588C0020DFF8BC2900201080DFF8B81996
:1032200000200870DFF884351868408F01283BD1F2
:10323000B14B1868008B022807D01868008B012852
:1032400003D01868008B002802D1012008706CE0C0
:103250001868008B032803D01868008B042864D1F9
:103260001868008B032801D101201080DFF80406C4
:10327000027C120709D590F86500000702D50220EC
:10328000087052E0012008704FE090F8652012F0BD
:10329000050F02D00220087047E090F86400800615
:1032A00043D50120087040E01868408F02282BD1D8
:1032B000914B1868008B022807D01868008B0128F2
:1032C00003D01868008B002802D1012008702CE080
:1032D0001868008B032803D01868008B042824D1B9
:1032E0001868008B032801D101201080DFF8400B03
:1032F0000278012A02D10220087016E00078022824
:1033000013D10120087010E01868408F002804D104
:10331000012010800120087007E01868408F032802
:1033200003D100201080002008707047848A00209C
:10333000188C002080B570480068008B002806D0EB
:1033400002280ED003D304280BD007D31BE0FCF7D0
:1033500054FF0020DFF87C18088018E0FDF7A3F97F
:1033600015E00020DFF86C180880DFF86C080178A1
:10337000012902D1FCF741FF04E00078022801D1C5
:10338000FCF702FF03E00020DFF84818088001BDC9
:10339000D48A00204B8D002038B5564D287801285E
:1033A0000FD0C0F0A68003283DD032D305285AD0D4
:1033B0004FD3072800F08A8074D3082800F0968045
:1033C00097E0DFF8E8030068408B00280ED000206B
:1033D00002F0CEF9DFF85C1A0860DFF85C1A0988A1
:1033E00048430400200003F03CFA0BE04248016827
:1033F000D1F82E0004002100002001F0E3FCDFF8EA
:10340000341A08600120DFF8341A0870022028708E
:103410006FE0FFF7ADF8DFF8240A0078002801D14B
:103420000320287065E0DFF8080A0178012906D139
:103430000120DFF80C1A08700420287008E00078DA
:10344000022805D1072028700120DFF8F81908703C
:103450004FE0FEF73DFDDFF8E8090078002801D1D4
:103460000520287045E0FDF734FADFF8C40900783C
:10347000022814D10120DFF8601708701E48006888
:10348000008B032804D10120DFF84817088003E0EF
:103490000020DFF8401708800620287001E008208F
:1034A000287026E0FFF746FFDFF82807008800288D
:1034B0000BD10120DFF88C190870DFF88C09008827
:1034C000DFF8881908700720287012E0FFF74AF922
:1034D000DFF870090078002807D10948007810F05B
:1034E0000100002801D10820287002E00020287087
:1034F000FFE731BD3F8D0020D88C0020D88B002005
:103500004C4600101E8D0020EC8C0020E0B1FFFF27
:10351000418D002010824142DC8C00205C8C002018
:1035200038B5DFF834552878642808D1DFF8240B43
:103530000088002840F036810120287032E1287888
:1035400001280AD1FDF768FBFFF764FE67202870A9
:103550000020DFF8041B088024E1287867280AD1BE
:10356000FFF7E8FEDFF86C060088002840F01A81BB
:103570000220287016E1287802280ED1FFF7C4FA3D
:1035800004002000C0B2002800F00C810320287045
:103590000120DFF8C81A087004E12878032813D145
:1035A000FFF74CFBDFF8B41A0878002802D104209A
:1035B0002870F7E00878642840F0F480AD4841783E
:1035C00051F010014170EDE02878042830D177499E
:1035D0000868408F002809D10120DFF8841A08709C
:1035E0000020A749087005202870DBE00868408F9C
:1035F000022806D10120DFF86C1B08700620287015
:10360000D0E00868408F012806D10120DFF8581B60
:1036100008700F202870C5E00868408F032840F02C
:10362000C1800B2028700120DFF8381B0870B9E03A
:10363000287805280AD100F0BBFDDFF8240A0078BD
:10364000002840F0AF8016202870ABE028780628CC
:103650000AD1FFF7A1FEDFF80C0B0078002840F03C
:10366000A180162028709DE028780B2812D1FFF742
:10367000E9F9DFF8F00A0078002840F09380DFF8DD
:10368000EC0A007810F00100002840F08B80162032
:10369000287087E028780F2810D1FDF767FDDFF844
:1036A000C80A007800287DD1DFF8C00A007810F041
:1036B0000100002876D11620287073E0287814289D
:1036C00070D0287816281BD1DFF8A40A0078C0F340
:1036D000C000C0B2002802D01720287062E0DFF8D6
:1036E0008C0A0078C0F34000C0B200285AD1DFF83D
:1036F000840A006882880021012002F00AFA51E061
:103700002878172817D10020DFF84C1B08700020FC
:10371000DFF8641A08700020DFF830170870DFF84F
:103720004C0A007810F0010000283BD1FFF7AAFCFA
:103730001820287036E02878182833D1DFF82C0AB2
:10374000007810F0010000282CD1C44802681168EC
:103750000268491C116001680868C82103F000FA7A
:10376000FFF7E5FC11490868408F032807D10020C6
:1037700028704048427812F0F702427001E00120C0
:103780002870DFF8F8290868008D401C1060116867
:103790004FF47A70414311601168DFF8E409006862
:1037A0004118116031BD000000200010E08C0020A5
:1037B00010B53148DFF8CC19B1F8B02403689A830A
:1037C000B1F8B2140068C1832A4C6078C0F3C0001D
:1037D000C0B2002802D0FFF7A3FE38E0002028493D
:1037E00008700020DFF85416087000202549087082
:1037F00022490878C0B2C009C0B2002827D0DFF83B
:103800007C090068DFF87829126890421FD294483A
:10381000027812F0BF020270027812F0EF0202701A
:10382000DFF864291268128B032A04D10120DFF823
:103830005C29108007E0027812F07F0202700278A3
:1038400012F0DF020270087810F07F000870FFF7B6
:103850009FFADFF81809007810F0030F09D160789B
:10386000C0F34010C0B2002803D101F053FBFFF7B2
:10387000A3FB10BDB0440010F08C0020168D00207A
:103880004A8D00204F8D00202DE9F041DFF8EC6CCF
:103890003078012813D1DFF8C0090078002800F043
:1038A000BF80DFF8EC080068DFF88C15098890FB12
:1038B000F1F0DFF8E018086002203070B0E03078F6
:1038C000022840F08080DFF89009007800282DD190
:1038D00002F0C4FFDFF8C018DFF8C02892F9012019
:1038E00001EB820151F8041C401ADFF84C150988DD
:1038F00090FBF1F00400012C1ADBDFF8A40800684B
:10390000B0F80C804146002001F05CFA0700A742A5
:1039100009DA042030700020DFF85C1808700020FD
:1039200001F084FF04E00120050001E00120050012
:103930002800C0B2002823D0DFF83008007810F04B
:10394000010000280DD1DFF85C080068DFF83018AE
:103950000968884214D21120DFF82818A1F840061F
:103960000EE0DFF84018DFF838080068428E0A20C1
:1039700042430A600A68DFF80808006882180A6093
:10398000DFF804180868D0F82220DFF8140800686F
:10399000C08B121A1400DFF8100802681068844205
:1039A0003EDA0868D0F82210002001F00BFA04007B
:1039B000A521002001F0C8FE2100002001F0CFFF6A
:1039C000042030702CE03078042818D1DFF89C07F0
:1039D000007810F00100002822D1DFF8C817DFF8C6
:1039E000C0070068428E0A2042430A600A68DFF876
:1039F0009007006882180A600520307010E0307867
:103A000005280DD1DFF89C070068DFF874170968F6
:103A1000884205D20020DFF860170870002030705F
:103A2000BDE8F0810022DFF8841700200870DFF87D
:103A3000C80B0368DFF8C40B0068C318022093FBAF
:103A4000F0F0DFF8BC3B1B68834202DA01220A7007
:103A500001E002220A7070473E8D0020E48C0020B5
:103A6000F08B002038B50024DFF834170868808A0E
:103A7000002802D1200040B2AAE00868808A01280C
:103A800031D1DFF8C82392F90000022802DA2000C1
:103A900040B29DE0DFF86C3B93F90000002802D1B2
:103AA0000120040092E00868C08A0228C0F28E80DB
:103AB0000868C08A92F90020904200F0878093F94C
:103AC00000000968C98A491E884202D0200040B21D
:103AD0007EE04248407BC0F38010C0B2002875D021
:103AE0000120040072E00868808A022832D1DFF8E1
:103AF0005C0390F90020022A02DA200040B267E05D
:103B0000DFF8002B92F9003090F900506D1EAB42A7
:103B100002D10120040059E00B68DB8A022B55DB3F
:103B20000B68DB8A90F9000083424FD092F90000C5
:103B30000968C98A491E884202D0200040B247E085
:103B40002648407BC0F38010C0B200283ED0012040
:103B500004003BE00868808A062802D101200400A6
:103B600034E00868808A042802D1012004002DE096
:103B70000868808A032813D1184881798DF80010CD
:103B8000C0798DF80100BDF800100122DFF8740A39
:103B900090F900008240114218D00120040015E085
:103BA0000868808A072811D1A84890F900000128E8
:103BB00002D0200040B20BE0FFF734FFDFF8EC0545
:103BC0000078012802D101200400FFE7200040B264
:103BD00032BD0000228D0020538D0020B044001023
:103BE00038B40020DFF8B8251168898A022930D15D
:103BF000964B93F90010022901DA40B2ACE0DFF8ED
:103C0000044A94F90010002902D101210800A2E021
:103C10001168C98A0229C0F29E801168C98A93F985
:103C20000030994200F0978094F900101268D28A0F
:103C3000521E914201D040B28EE0DFF8CC19497B90
:103C4000C1F38011C9B2002940F08580012108002C
:103C500081E01168898A012930D17C4991F90030CD
:103C6000022B01DA40B277E0DFF8983993F900408F
:103C700091F900506D1EAC4202D1012108006AE0AA
:103C80001468E48A022C66DB1468E48A91F9001057
:103C90008C4260D093F900101268D28A521E914271
:103CA00001D040B258E0DFF86019497BC1F38011C0
:103CB000C9B200294FD1012108004CE01168898A5E
:103CC000052902D10121080045E01168898A0429EB
:103CD00002D1012108003EE01168898A032914D12C
:103CE000DFF824190A7A8DF80020497A8DF801103E
:103CF000BDF800200123DFF80C1991F900108B406A
:103D00001A4228D00121080025E01168898A072974
:103D10000ED14E4991F90010012901D040B21BE0AB
:103D2000DFF888140978022915D10121080012E072
:103D30001168898A08290ED1444991F90010022995
:103D400001D040B208E0DFF8BC1891F90010012959
:103D500001D10121080040B232BC704738B5DFF80C
:103D600028040068808B00281ED0DFF89808DFF850
:103D7000901890F9002051F82210DFF8082B90F9E4
:103D8000000052F820004118022091FBF0F4DFF807
:103D900010040068B0F95C10002001F013F800195D
:103DA000DFF8E41A08601AE0DFF85408DFF8541866
:103DB00091F9001050F82140DFF8E4030068B0F9F1
:103DC0005C10002000F0FEFF05002D1940F2DC51D0
:103DD000002000F0F7FF281ADFF8AC1A086031BDA8
:103DE00030B4DFF8BC231168C98E00291AD01168DD
:103DF000898E814212DA0021DFF8904A2368C31AC3
:103E00001568AD8E9D4205D221681268928E891880
:103E100021600AE021685B18236006E0DFF86C1A75
:103E2000086002E0DFF8641A086030BC70470000E8
:103E3000438D0020208C0020148D0020408D002018
:103E4000518D00204C8D0020208D0020468D0020BB
:103E50002DE9F0410022002100240020020092B24E
:103E6000142A1EDADFF8283A00221D680600B6B2CE
:103E700005EB86056A661D680600B6B245F8262081
:103E80001D680600B6B205EB8605C5F8C8201B689C
:103E90000500ADB203EB850313F596731A60401C61
:103EA000DCE7DFF8F029BD4D95F900301668B381E5
:103EB00095F901301268D38195F90020152A01DBAC
:103EC000142701E095F900705FF0000840463900C2
:103ED00080B289B2884219D2AD48414689B250F8C1
:103EE0002100DFF8B419098890FBF1F004002100EB
:103EF000002000F0A5FFDFF898190968424692B249
:103F000001EB8201486618F10108DFE795F901002D
:103F1000152801DB142601E095F90160002738001F
:103F2000310080B289B2884217D29B48390089B2E9
:103F300050F82100DFF86019098890FBF1F00400C7
:103F40002100002000F07CFFDFF8441909683A00E6
:103F500092B241F822007F1CE1E795F90000DFF8FA
:103F600030190B681A68D1F800C0DCF86430D1F859
:103F700000C0D21ACCF8C8200122130006009BB260
:103F8000B6B2B3422CD20E681700BFB256F8273033
:103F90000E681700BFB206EB87077E6E0F68944667
:103FA0001FFA8CFC07EB8C079B1BC7F8C8300B680B
:103FB0001600B6B203EB8606736E0E681700BFB22A
:103FC00006EB870757F8046C0F6894461FFA8CFCC1
:103FD00007EB8C0717F596779B1B3B60521CCCE7D1
:103FE00001210A0092B295F900309A4213DA684A28
:103FF0000B009BB252F82320DFF89C381B8892FB01
:10400000F3F2DFF8FC350E00B6B203EB860343F89B
:10401000042C491CE5E795F90120521E00231800E5
:10402000110080B289B2884211D25B48190089B26E
:1040300050F82100DFF86018098890FBF1F0DFF8F4
:1040400044181D00ADB241F825005B1CE7E7BDE850
:10405000F08100001A8D0020288D0020418D002065
:10406000498D00202DE9F84F86B05FF0000A00244A
:10407000002502A8102103F083F848480678DFF8ED
:104080001878DFF80C81D8F800103A8891FBF2F12B
:10409000DFF868251160DFF8009190F9010009EB65
:1040A000800050F8040C398890FBF1F0DFF84815D7
:1040B00008603000C0B202284EDB01200500280055
:1040C0003100C0B2C9B2884246D22800C0B258F806
:1040D0002000398890FBF1F002900DF1080A2800C9
:1040E000C0B209EB800050F8040C398890FBF1F065
:1040F000CAF804000299DAF80400091ACAF808108C
:10410000DFF89CB0DBF800008189002000F05AFE47
:104110000190DBF800004189002000F053FE009080
:10412000DAF808000099884214DB0198DAF80810E0
:1041300088420FDB0298DFF8C8142200D2B241F89F
:104140002200DAF80400DFF83C172200D2B241F86E
:104150002200641C6D1CB2E72000C0B207B0BDE8AD
:10416000F08F00003F8D0020508D00204C46001045
:10417000D88B0020DC8C0020528D00201C8C00206D
:10418000D48C002000200010D88C00201C8D002032
:10419000C4860020348C002034850020268D002029
:1041A000E08C0020608C0020EC8C0020428D0020F0
:1041B0002DE9F0470025DFF8E466307801282AD1A0
:1041C000DFF8940B0068DFF8941B0968884280F0E0
:1041D0001182FCF755FB0020DFF8B01608600120C3
:1041E000DFF87C1B08700120DFF8901308700321B2
:1041F000002001F064FA6422A521002001F08BFA6E
:104200000022DFF8600B0068C189002001F021FB6B
:10421000C8203070EEE13078C8281FD1FFF734FB9A
:10422000DFF858030078002840F0E481DFF8380B0D
:10423000017811F0F70101700020DFF8241B0870ED
:104240000020054908700020DFF8201B0870FFF7E8
:10425000FFFD02203070CDE1548D0020307802281F
:1042600019D1DFF80C7BFFF7FDFE3870DFF8040B87
:10427000002101700021417097F90000012807DB3F
:104280003878401EDFF87C1308700B203070B1E1E5
:104290000A203070AEE130780B2813D10520307041
:1042A000DFF8D40A0068808A002800F0A381002784
:1042B000FFF7D8FB010049B20129C0F29B8103211D
:1042C000317097E13078032824D1DFF8B00A007804
:1042D00010F00100002840F08D81FFF73FFDDFF86E
:1042E000980A0068418A002000F06CFDDFF89815FC
:1042F000096808180400DFF86C0A00688289210048
:10430000002001F006FC042030700020DFF87C154E
:1043100008606FE13078042813D1DFF8600A007874
:1043200010F0030F40F06681282030700120DFF884
:10433000501A0870DFF8400A0068008BFFF750FD44
:1043400058E1307828281ED1DFF82C7ADFF83C8538
:10435000D8F800103868008A00F058F9DFF8200A11
:104360000078002840F04681D8F800003968098BB1
:10437000884205D3052030700020C8F8000039E1DC
:104380000420307036E1307805284AD1DFF8EC0996
:10439000007810F0030F40F02D81FFF7DFFCDFF80D
:1043A000C40900688289DFF8E0040168002001F098
:1043B000B0FBDFF8509299F90000012826DBDFF806
:1043C00040A299F900005AF8207099F900005AF8B3
:1043D00020003F1A3900002000F032FDDFF8B484DD
:1043E000D8F80010488299F900005AF82010DFF838
:1043F000940499F9002050F82200091A0C002100B9
:10440000002000F01DFDD8F8001048800120DFF8E2
:1044100070190870062030700020DFF870140860F2
:10442000E8E0307806280FD1DFF85009007810F066
:10443000030F40F0DF80DFF840090068008FFFF7CE
:10444000CFFC14203070D5E03078142820D1DFF86C
:104450002879DFF83884D8F800103868008A00F02E
:10446000D5F8DFF81C190878002840F0C380D8F888
:1044700000003A68128F904205D30C203070002063
:10448000C8F80000B6E00120087006203070B1E0E6
:1044900030780C2813D109203070DFF8DC08006870
:1044A000808A002800F0A6800027FFF799FB010012
:1044B00049B20129C0F29E80072131709AE030781C
:1044C000072849D1DFF8B4080078C0F34000C0B233
:1044D000002841D1DFF8A0080168898A08291ED187
:1044E000DFF8A0080068808B00280FD0DFF8942345
:1044F00043494B685068C3181C000968106841188C
:10450000611A042091FBF0F005000EE03C48416880
:104510000068081A022190FBF1F0050005E0006830
:10452000418A002000F04EFC0500DFF85C030068C3
:10453000401B0400DFF82C0800688289210000205D
:1045400001F0E7FA0120DFF8381808700820307011
:104550000020CE4908604DE03078082810D1DFF8FF
:104560001C08007810F0030F44D1DFF80C08006835
:10457000008BFFF735FC1E2030703BE04A8D002099
:1045800030781E281FD1DFF8F077DFF80083D8F8E5
:1045900000103868008A00F039F8DFF8E41708786E
:1045A000002827D1D8F800003A68128B904205D332
:1045B000092030700020C8F800001BE001200870BE
:1045C0000820307016E0307809280DD10D4890F998
:1045D0000010012905DB0178491E01700B203070A5
:1045E00008E00A20307005E030780A2802D1002067
:1045F0003070FFE7BDE8F087408C00203C8C002045
:10460000A4830020478D0020B04400102DE9F04124
:1046100004000D000026DFF868773878012824D1DF
:10462000DFF85807007810F0030F40F02881DFF81A
:104630005817DFF844271068438E0A2043430B6065
:104640000B68DFF818070068C3180B600220387089
:104650001068B0F85600002800F01181DFF8080754
:10466000017851F00801017009E1387802282FD152
:10467000DFF8E806DFF8101709680268914280F059
:10468000FE80DFF8081709680068814280F0F78033
:10469000DFF8F0060068008B002810D0A04615EB6C
:1046A00008084146012000F08DFB0600DFF8B40643
:1046B000006802893100012001F02BFA05E0DFF8E3
:1046C000A806817851F00101817003203870D6E08E
:1046D000387803283BD1DFF8AC060068008B00284F
:1046E0001AD0DFF898060078C0F34000C0B2002866
:1046F00040F0C580DFF89816DFF87C060068428D30
:104700000A2042430A600A68DFF8500600688218EF
:104710000A6004203870B2E0DFF878064078C0B252
:10472000C009C0B2002800F0AA80DFF86416DFF8E4
:1047300048060068428D0A2042430A600A68DFF892
:104740001C06006882180A600420387097E03878E8
:10475000042822D1DFF838060068DFF8001609685F
:10476000884280F08C80DFF81C060068008B0028EF
:104770000AD000200600DFF8EC050068C28831008E
:10478000012001F0C6F905E0DFF8DC05817811F0C1
:10479000FE0181700520387071E03878052833D12A
:1047A000DFF8E0050068008B002813D0DFF8CC05A7
:1047B0000078C0F34000C0B2002860D106203870F5
:1047C000DFF89805006800F598508830DFF8B815D4
:1047D000086054E0DFF8BC054078C0F34010C0B278
:1047E00000284CD0DFF8A015DFF88C050068028E99
:1047F0000A2042430A600A68DFF8600500688218F0
:104800000A60072038703AE0387806281ED1DFF8B1
:1048100084050078C0F3C000C0B2002802D0082090
:1048200038702CE0DFF860050068DFF830150968A3
:10483000884224D20F20DFF86015A1F84006DFF887
:104840005C05417851F01001417018E03878072874
:104850000AD1DFF834050068DFF8001509688842DE
:104860000DD2082038700AE03878082807D1DFF820
:10487000F804017811F0F701017000203870BDE8EC
:10488000F081000014820020648C0020188C00202D
:10489000E88C0020F08C0020148D0020498D002031
:1048A000F8B504000025E068012803DA0020DFF8ED
:1048B000D0140870DFF8C864307801282FD1DFF8F1
:1048C000BC04007810F0030F40F04582DFF8D004FC
:1048D000017801290BD161682068606021606268FD
:1048E00020688218022092FBF0F005000CE00078AE
:1048F000022807D1616820684118022091FBF0F07E
:10490000050001E020680500DFF85804006882898E
:104910002900002001F0FDF8022030701BE2307801
:10492000022821D1DFF85404007810F0030F0FD0D3
:10493000DFF87014DFF840040068428E0A2042431A
:104940000A600A68DFF81404006882180A6002E24C
:10495000DFF850040068DFF804140968884280F02A
:10496000FA8103203070F6E13078032827D1DFF890
:10497000EC030168DFF8E02312689142C0F0EB819C
:104980000068DFF8081409688842C0F0E481A16873
:10499000012000F017FA0500DFF8C8030068C2889C
:1049A0002900012001F0B5F81E2030700020DFF84A
:1049B000F81308800020DFF8F4130870CBE130789A
:1049C0001E280AD1DFF8D8030078002802D01F2063
:1049D0003070C0E104203070BDE130781F281ED156
:1049E000DFF898030078C0F34000C0B2002840F020
:1049F000B281A068DFF8B8130968498D47183900FB
:104A0000012000F0DFF90500DFF858030068028993
:104A10002900012001F07DF8202030709BE13078E2
:104A200020283DD1DFF854030078C0F34000C0B225
:104A300000280FD0DFF86C13DFF83C030068428DCC
:104A40000A2042430A600A68DFF8100300688218EF
:104A50000A6080E1DFF84C030068DFF800130968A2
:104A6000884280F07881DFF84C030068050000215F
:104A7000002000F024FE6421002000F038FE6421B4
:104A8000002000F061FEB74800684189002000F076
:104A900022FE2900002000F085FE042030705AE13B
:104AA0003078042834D1B548007810F0030F05D0D1
:104AB000AA4800686430BB4908604CE1B948006806
:104AC000A6490968884280F046810A203070AA48C9
:104AD0000068B0F84210E06880B2FBF7C0FDB24851
:104AE00001880D000088002800F03581A068451974
:104AF0002F00052030703900012000F063F9050017
:104B00009848006802892900012001F002F822E19A
:104B10003078052833D100219A480068008B00289E
:104B200009D096480078C0F34000C0B200280BD1ED
:104B30000120010008E097484078C0B2C009C0B227
:104B4000002801D0012001000800C0B2002809D0CF
:104B500094480068814A1268904280F0FC800620E8
:104B60003070F8E08F4A84480068438D0A20434340
:104B70001360136879480068C3181360EBE030785D
:104B8000062806D161682068FDF725F907203070F6
:104B9000E1E0307807281CD17848007810F0010057
:104BA000002809D17F4800686C490968884280F074
:104BB000D28008203070CEE07A496F480068428E7B
:104BC0000A2042430A600A686448006882180A6042
:104BD000C1E0307808282DD16A480068008B002891
:104BE00002D109203070B6E004203070724801888C
:104BF00001290DD160480068B0F96A6031000020D9
:104C000000F0E0F805006D48016A69180162A2E051
:104C10000088022840F09F8057480068B0F96A6019
:104C20003100002000F0CEF805006448016A491BFD
:104C3000016290E03078092817D152480068008B53
:104C400000280AD04D480078C0F34000C0B20028C8
:104C500040F081800A2030707DE04348817811F077
:104C6000FE0181700A20307075E030780A2824D166
:104C70004248007810F0030F6DD1494800780028B1
:104C800018D04C48006805000021002000F017FDF6
:104C90006421002000F02BFD6421002000F054FD71
:104CA000304800684189002000F015FD29000020EF
:104CB00000F078FD0C2030704DE030780C280ED1DB
:104CC0002E48007810F0030F45D126480068C288AE
:104CD0000021012000F01DFF0D2030703BE03078F6
:104CE0000D2833D127480068008B002810D02348B6
:104CF0000078C0F34000C0B200282CD125480078CD
:104D0000C0F3C000C0B2002825D00B20307022E0D4
:104D100020484078C0F34010C0B2002809D0214894
:104D200000680E490968884215D20B202449087092
:104D300011E01C4910480068028E0A2042430A60B4
:104D40000A680648006882180A6004E030780B2878
:104D500001D100203070F1BD308C0020D48C0020B7
:104D6000528D0020DC8C0020F08B0020558D00201F
:104D7000468D0020268D0020E08C00204C4600103F
:104D80004B8D0020D88C0020688C0020288C0020BF
:104D90002C8C0020D88B002000200010B044001084
:104DA000448D00206C8C0020248D0020458D002037
:104DB000E48C0020948B00202A8D00207845001080
:104DC0004C8D002038B52DED028B05000C009FEDB9
:104DD0007F8B280080B201280AD1200002F0D4F98C
:104DE0007C4AD2E9002302F0E1F941EC180B0DE016
:104DF000280080B2002809D1200002F0C5F9764AC7
:104E0000D2E9002302F0D2F941EC180B012C08DBA7
:104E100053EC182B0020714902F09AFA41EC100B68
:104E200007E053EC182B0020714902F091FA41EC95
:104E3000100B51EC100B02F049FBBDEC028B32BDA4
:104E400038B52DED028B05000C009FED608B28001E
:104E500080B201280AD1200002F096F95D4AD2E919
:104E6000002302F051FB41EC180B0DE0280080B24A
:104E7000002809D1200002F087F9574AD2E900231F
:104E800002F042FB41EC180B012C08DB53EC182B11
:104E90000020524902F05CFA41EC100B07E053ECA1
:104EA000182B0020524902F053FA41EC100B51EC40
:104EB000100B02F00BFBBDEC028B32BD70B500F0A5
:104EC0002AFD01F0CBFC464C21688860002000F0F0
:104ED0004FFC050029000020FFF7B2FF414E31686A
:104EE000086041480068008B002809D0012000F0CC
:104EF0003FFC050029000120FFF7A2FF3168486050
:104F00003C4800882168088270BD4FF4FA703A4925
:104F10000880704738B52DED048B334C2068C08B6A
:104F200002F016FC41EC100B51EC100B0022334B3D
:104F300002F0EAFA41EC180B2068008C02F008FC41
:104F400053EC182B02F0E0FA41EC180B224D85EDE2
:104F5000008B42F210702168098C90FBF1F023491C
:104F600008802068C08C02F0F3FB41EC100B51EC80
:104F7000100B0022214B02F0C7FA41EC190B2068FC
:104F8000008D02F0E5FB53EC192B02F0BDFA41EC69
:104F9000190B104C84ED009BD5E900230020002163
:104FA00002F0E4FB03D100201449C5E90001D4E973
:104FB00000230020002102F0D9FB03D100200F497B
:104FC000C4E90001BDEC048B31BD0000000000000D
:104FD00000000000D08B0020C88B00200000E03FC4
:104FE000F08C0020EC8C0020D88C0020148D002048
:104FF0000000E0BF208D00201A8D0020000024401A
:1050000080B5FFF75BFF03F0DDFC04F0CCF9FEF7A1
:10501000CFFB04F0B5FB05F03FFA01F053FF01BDF3
:1050200030B4002000237021002210000B0000B2D9
:105030001BB2984224DADFF8103A100000B253F89D
:10504000200000281AD0DFF8040ADFF8044A15000F
:105050002DB253F82530B4FBF3F35B1E140024B2D9
:1050600020F8143013001BB230F81300401C40101D
:10507000DFF8E039140024B223F81400521CD4E7FE
:10508000692300242000190000B209B2884224DA02
:10509000DFF8C419200000B251F8200000281AD00F
:1050A000DFF8B809DFF8B82925002DB251F825102E
:1050B000B2FBF1F1491E220012B220F812102100B9
:1050C00009B230F81100401C4010DFF89819220096
:1050D00012B221F81200641CD4E730BC7047DFF82C
:1050E00088090068800505D5DFF88009016A491E36
:1050F000016204E0DFF87409016A491C0162DFF80B
:105100006C19C88B012860D1886A401E8862886A41
:10511000002810D1DFF858090268520852000260D6
:10512000DFF8300B027812F0FE0202700020C88314
:1051300000208880CBE0C8898A6A904222D2888881
:10514000CA88904280F0C380488A401C4882488ABE
:105150000A899042C0F0BB80002048828888401CA9
:105160008880DFF8E8088A8830F81200DFF8042920
:105170001060DFF8E008898830F81100DFF8F818CF
:105180000860A4E0088A8A88904280F0A080488A5B
:10519000401C4882488A4A899042C0F0988000208A
:1051A00048828888401E8880DFF8A0088A8830F806
:1051B0001200DFF8C0281060DFF89808898830F8FE
:1051C0001100DFF8B418086081E0888B032823D130
:1051D000DFF8A8080078C0F34000C0B2002818D05B
:1051E000488B401C4883488B032870DBDFF880081D
:1051F0000268520852000260DFF8580A027812F082
:10520000FE0202700020086200208883002088804F
:105210005DE0002048835AE0888B012823D18888EC
:105220004A8890421CD2488A401C4882488A0A898F
:1052300090424CD3002048828888401C8880DFF848
:105240000C088A8830F81200DFF828281060DFF890
:105250000408898830F81100DFF81C18086036E06F
:105260000020888333E0888B022830D1088A8A881E
:1052700090421CD2488A401C4882488A4A899042FF
:1052800025D3002048828888401E8880DFF8BC072C
:105290008A8830F81200DFF8DC271060DFF8B407E6
:1052A000898830F81100DFF8D01708600FE0DFF8C8
:1052B000C0070268520852000260DFF898090278BD
:1052C00012F0FE0202700020888300208880704760
:1052D000DFF8140A0068800605D5DFF8100A016AB5
:1052E000491C016204E0DFF8040A016A491E0162F8
:1052F000DFF8F819C88B002860D0886A401E8862E1
:10530000886A002810D1DFF8E809026852085200C4
:105310000260DFF8E009027812F0FD02027000205E
:1053200088800020C883CBE0C8898A6A904222D254
:105330008888CA88904280F0C380488A401C48828E
:10534000488A0A899042C0F0BB8000204882888841
:10535000401C8880DFF804078A8830F81200DFF8E4
:1053600098291060DFF8FC06898830F81100DFF812
:105370008C190860A4E0088A8A88904280F0A08096
:10538000488A401C4882488A4A899042C0F09880E6
:10539000002048828888401E8880DFF8C0068A88FE
:1053A00030F81200DFF850291060DFF8B80689885D
:1053B00030F81100DFF84419086081E0888B032879
:1053C00023D1DFF8B8060078C0F3C000C0B20028CF
:1053D00018D0488B401C4883488B322870DBDFF89C
:1053E00010090268520852000260DFF808090278CA
:1053F00012F0FD0202700020086200208883002065
:1054000088805DE0002048835AE0888B012823D102
:1054100088884A8890421CD2488A401C4882488A20
:105420000A8990424CD3002048828888401C88809A
:10543000DFF828068A8830F81200DFF8BC281060F0
:10544000DFF82006898830F81100DFF8B01808600E
:1054500036E00020888333E0888B022830D1088A28
:105460008A8890421CD2488A401C4882488A4A89CD
:10547000904225D3002048828888401E8880DFF82B
:10548000DC058A8830F81200DFF86C281060DFF83D
:10549000D405898830F81100DFF8601808600FE043
:1054A000DFF84C080268520852000260DFF8440836
:1054B000027812F0FD0202700020888300208880AC
:1054C000704710B50400200080B2002811D105F00B
:1054D00014F9DFF898050021C1830321818303219A
:1054E00041800121018200214182002000F013F857
:1054F00010E005F026F9DFF8F4070021C18303214D
:10550000818301214180002101820021418201200B
:1055100000F001F810BD010089B2002924D1DFF8A4
:105520004C150A8A8A80DFF824258B8832F81320EC
:10553000DFF840351A60DFF81C25898832F8111031
:10554000DFF8342511600021DFF8B4271160DFF89F
:1055500020150A6852F001020A60DFF898170A78ED
:1055600052F001020A704CE0010089B2012924D1F5
:10557000DFF878170A8A8A80DFF8E0248B8832F80F
:105580001320DFF874371A60DFF8D824898832F8DE
:105590001110DFF8682711600021DFF8642711601F
:1055A000DFF84C170A6852F001020A60DFF844176E
:1055B0000A7852F002020A7023E0010089B202293F
:1055C0001FD1DFF840170A8A8A80DFF890248B8881
:1055D00032F81320DFF820371A60DFF88824898832
:1055E00032F81110DFF814271160DFF81C170A6871
:1055F00052F001020A60DFF8FC160A7852F0040249
:105600000A70704710B50400606A002817D5606AF8
:105610004042A0622088002802D105F06EF824E004
:105620002088012802D105F08CF81EE0208802288D
:1056300002D105F099F818E00020A06215E0606A38
:10564000A0622088002802D105F045F80DE02088EE
:10565000012802D105F063F807E02088022802D172
:1056600005F081F801E00020A06221896288208A8B
:10567000121A11FB02F0A08161896288208A121A35
:1056800011FB02F0E081208AA08000206082A06AE5
:10569000A189E289511888420ED2A06A21896289C3
:1056A0005118B0FBF1F0E0806189E288208A121A7B
:1056B00011FB02F0E08101E06088E08010BD020093
:1056C00092B2042A06DADFF8442603009BB252F8AD
:1056D000232011827047020092B2042A06DADFF812
:1056E0002C2603009BB252F823205180704710B43F
:1056F000020092B2042A0CDADFF8102603009BB2F3
:1057000052F82330198100230400A4B252F8242057
:10571000538210BC704730B403009BB2042B11DAE3
:10572000DFF8E8350400A4B253F8244021810400D6
:10573000A4B253F82440628100240500ADB253F8AE
:1057400025305C8230BC704710B4020092B2042A4B
:105750000CDADFF8B82503009BB252F823305981E8
:1057600000230400A4B252F82420538210BC7047D6
:1057700001000A0092B2042A07DADFF890250B0034
:105780009BB252F82320126A10007047020092B2B6
:10579000042A06DADFF8742503009BB252F82320AE
:1057A0001162704770B505000C00280080B2042813
:1057B0002FDADFF85865280080B256F82000006A1A
:1057C000201A290089B256F82110486200202900C9
:1057D00089B256F8211088830020290089B256F832
:1057E00021104882280080B256F82000FFF70AFFF7
:1057F000280080B256F82000806A002809D00120D5
:10580000290089B256F82110C883280080B2FFF71A
:1058100082FE70BD020092B2042A06DADFF8EC24A0
:1058200003009BB252F8232011637047010089B234
:1058300004290DDADFF8D414002203009BB251F8DA
:105840002330DA83022203009BB251F823108A83AB
:1058500070472DE9F04107000C001500380080B2B8
:10586000042856DADFF8A4840020390089B258F8F9
:105870002110C883380080B2002803D0022820D02D
:105880000FD32DE07A48006810F0010006002800D0
:1058900080B2002802D004F030FF01E004F01BFFCA
:1058A0001EE0DFF84C04006810F00100060028003C
:1058B00080B2002802D004F044FF01E004F02FFF82
:1058C0000EE0DFF84404006810F001000600280034
:1058D00080B2002802D004F047FF01E004F043FF4B
:1058E0003000C0B2002814D10120390089B258F824
:1058F00021108883380080B258F8200044800020AE
:10590000390089B258F821104882380080B2FFF778
:1059100002FEBDE8F08156480068C00706D5DFF8F2
:10592000D403017851F00101017005E0DFF8C403F0
:10593000017811F0FE010170DFF8B4030068C007C0
:1059400006D5DFF8B003017851F00201017005E0DF
:10595000DFF8A003017811F0FD010170704738B540
:1059600005000C00280080B204286ADADFF89C13D6
:10597000280080B251F82000006A844204DA28002E
:1059800080B2FFF753FF5CE0280080B251F820009E
:10599000006A201A2A0092B251F822205062280090
:1059A00080B251F82000406A2A0092B251F82220B9
:1059B000906200202A0092B251F8222090830020A9
:1059C0002A0092B251F822205082280080B251F869
:1059D000200040882A0092B251F82220D08028006E
:1059E00080B251F820004288280080B251F820008F
:1059F000008A121A280080B251F82000C2812800C3
:105A000080B251F82000C0892A0092B251F82220B9
:105A1000528910FB02F02A0092B251F82220D08164
:105A2000280080B251F82000C08932302A0092B29A
:105A300051F82220D08101202A0092B251F8221080
:105A4000C88331BD00000000EC5603080040001080
:105A5000008793032C410010AC58030858420010F3
:105A6000000E2707844300101414024078450010EC
:105A7000001C00402C1C0040341C0040D88B00202F
:105A8000F8B504000D0016004FF4E177280080B24D
:105A9000032801DA03200500210089B20020FFF766
:105AA0000EFE390089B20020FFF721FE390089B2CD
:105AB0000020FFF749FE290089B20020FFF70BFE06
:105AC00031000020FFF76EFEF1BDF8B504000D00B7
:105AD00016006427280080B2032801DA032005009D
