:020000040802F0
:10000000002000105D670308C95E0308CB5E03088B
:10001000CD5E0308CF5E0308D15E03080000000038
:10002000000000000000000000000000D35E030894
:10003000D55E030800000000D75E0308C52603084C
:100040006D6703087167030875670308796703081C
:100050007D670308816703088567030889670308CC
:100060008D6703089167030895670308996703087C
:100070009D670308A1670308A5670308A96703082C
:10008000AD670308B1670308B5670308B9670308DC
:10009000BD670308C1670308C5670308C96703088C
:1000A000C3A8020893A802087BA80208CD6703082A
:1000B000D1670308296A0208D5670308D9670308CE
:1000C000DD670308E1670308E5670308E9670308DC
:1000D000ED670308F167030815D90208F5670308FF
:1000E000F9670308FD67030801680308056803084A
:1000F000ABA80208096803080D6803081168030823
:1001000015680308196803081D68030821680308B7
:1001100025680308296803082D680308A96A0208EE
:100120003168030835680308396803083D68030827
:100130004168030845680308496803084D680308D7
:10014000516803085568030859680308D95E030815
:100150005D68030861680308656803086968030847
:100160006D680308716803087568030879680308F7
:100170007D680308E35E030881680308000000004F
:100180008568030889680308DFF87C1A087810F08E
:10019000BF0008700878C0F30010C0B2002812D168
:1001A000087850F010000870DFF8602ADFF8600A65
:1001B0000068C38D0A20434313601368DFF8300BD7
:1001C0000068C31813600878C0F34010C0B200285C
:1001D00012D1087850F020000870DFF8381ADFF8E4
:1001E000300A0068028C0A2042430A600A68DFF87D
:1001F000000B006882180A607047DFF80C1A087854
:1002000010F0EF0008700878C0F38010C0B200282A
:1002100012D1087850F040000870DFF8F029DFF8BC
:10022000F0090068C38D0A20434313601368DFF8A8
:10023000C00A0068C31813600878C0B2C009C0B211
:10024000002812D1087850F080000870DFF8C41937
:10025000DFF8BC090068C28C0A2042430A600A68C1
:10026000DFF88C0A006882180A60704710B5DFF862
:10027000841A0868008A002834D0DFF87C0A0278E3
:1002800012F0FE020270027812F0FD020270027893
:1002900012F0FB020270027812F0F7020270DFF82F
:1002A0005C2A1278012A04D1027852F0020202700C
:1002B0001EE0DFF84C2A1278012A04D1027852F0AD
:1002C0000402027014E0DFF83C2A1278012A04D1FB
:1002D000027852F0080202700AE0027852F001023D
:1002E000027005E0DFF8100A027812F0FE020270D8
:1002F000DFF8042A1078C0F34000C0B2002804D010
:100300000120DFF8041A08802EE01078C0F3800086
:10031000C0B2002804D00220DFF8EC19088023E0E6
:100320001078C0F3C000C0B2002804D00320DFF86A
:10033000D819088018E0DFF8D008027812F0F70228
:1003400002700020DFF8C02910800868D0F82E1055
:10035000002004F02FFD0400DFF8840B0068828881
:100360002100002005F0CDFB10BD10B5DFF8841989
:100370000868008A002834D0DFF87C09027812F07F
:10038000FE020270027812F0FD020270027812F092
:10039000FB020270027812F0F7020270DFF86029A7
:1003A0001278012A04D1027852F0040202701EE091
:1003B000DFF850291278012A04D1027852F008029D
:1003C000027014E0DFF844291278012A04D102787F
:1003D00052F0010202700AE0027852F0020202704A
:1003E00005E0DFF81409027812F0FD020270DFF870
:1003F00008291078C0F38000C0B2002804D0022081
:10040000DFF8041908802DE01078C0F3C000C0B2F6
:10041000002804D00320DFF8F018088022E01078CC
:1004200010F00100002804D00020DFF8DC1808805C
:1004300018E0DFF8D407027812F0F702027000200B
:10044000DFF8C42810800868D0F83210002004F0CB
:10045000B1FC0400DFF8880A0068828821000020CF
:1004600005F04FFB10BD10B5DFF888180868008A4A
:10047000002834D0DFF88008027812F0FE02027003
:10048000027812F0FD020270027812F0FB02027094
:10049000027812F0F7020270DFF868281278012A59
:1004A00004D1027852F0080202701EE0DFF85C28E6
:1004B0001278012A04D1027852F00102027014E08D
:1004C000DFF838281278012A04D1027852F00202AB
:1004D00002700AE0027852F00402027005E0DFF8D0
:1004E0001808027812F0FB020270DFF80C2810786E
:1004F00010F00100002804D00020DFF80C1808805C
:100500002EE01078C0F34000C0B2002804D00120D3
:10051000DFF8F417088023E01078C0F3C000C0B201
:10052000002804D00320DFF8E017088018E0DFF887
:10053000D806027812F0F70202700020DFF8C82710
:1005400010800868D0F83610002004F033FC040056
:10055000DFF8580B006882882100002005F0D1FAEE
:1005600010BD10B5DFF88C170868008A002834D059
:10057000DFF88407027812F0FE020270027812F0AF
:10058000FD020270027812F0FB020270027812F093
:10059000F7020270DFF874271278012A04D102787A
:1005A00052F0010202701EE0DFF850271278012A93
:1005B00004D1027852F00202027014E0DFF8402702
:1005C0001278012A04D1027852F0040202700AE083
:1005D000027852F00802027005E0DFF81C0702788A
:1005E00012F0F7020270DFF81027107810F0010007
:1005F000002804D00020DFF8101708802EE01078C3
:10060000C0F34000C0B2002804D00120DFF8F81683
:10061000088023E01078C0F38000C0B2002804D026
:100620000220DFF8E416088018E0DFF8DC05027825
:1006300012F0F70202700020DFF8CC261080086864
:10064000D0F83610002004F0B5FB0400DFF85C0A97
:10065000006882882100002005F053FA10BD70B4B4
:10066000030000200024DFF8486A32881D00ADB284
:10067000AA4211D21D003288AD1A2C000A002500B2
:1006800092B2ADB2AA4203D232888A18328007E011
:100690003288A218328003E000223280012210004A
:1006A00040B270BC704710B4DFF8081A08880128FF
:1006B0000CD1DFF85405407810F00100002802D07A
:1006C0000A200880DAE002200880D7E008880A289B
:1006D0000ED1DFF8E409827F120602D50B200880D4
:1006E000CCE0807F800640F1C9800C200880C5E006
:1006F00008880B2812D1DFF8C4090278012A02D138
:1007000004200880BAE00078022840F0B780012079
:10071000DFF8AC29108002200880AFE008880C28A0
:1007200012D1DFF898090278012A06D10120DFF8FA
:100730009029108002200880A0E00078022840F074
:100740009D800420088099E00888022808D1DFF8FD
:1007500070090088002840F09180032008808DE017
:100760000888032857D1DFF854090278012A27D1D5
:10077000DFF89424107850F0800010700420088076
:10078000DFF84019C8200860DFF83C390C681868A9
:1007900004190C60107850F040001070107810F0C0
:1007A000EF001070DFF86414DFF864040068C28D95
:1007B0000A2042430A600A68186882180A605DE0ED
:1007C000007802285AD1DFF84024107850F0200039
:1007D000107004200880DFF8EC18C8200860DFF8EB
:1007E000E8380C68186804190C60107810F0BF0025
:1007F0001070107850F010001070DFF81014DFF84F
:1008000010040068C28D0A2042430A600A68186812
:1008100082180A6032E0088804280AD1DFF8A408A8
:100820000068DFF8A4281268904227D205200880CB
:1008300024E0088805281CD1DFF8CC23507810F07C
:100840000100002812D1507850F001005070DFF8FC
:10085000C423DFF8BC030068038C0A204343136001
:100860001368DFF864080068C31813600620088066
:1008700004E00888062801D10020088010BC7047D9
:100880002DE9F0414FF4C87634000025DFF84078B8
:100890002A002100380005F03BFA0027DFF83488F1
:1008A0003A003100404605F033FADFF82C08002109
:1008B0000170002141700020DFF82018087000202E
:1008C000DFF81C1808700020DFF818180870BDE861
:1008D000F0812DE9FE4F00208DF8000000200290ED
:1008E000502001900026DFF80048250032000199D1
:1008F000280005F00DFA78275FF00008DFF8EC57C4
:1009000042463900280005F003FA5FF050095FF015
:10091000000ADFF8DC57AB4652464946584605F018
:10092000F7F9BB4A1068D0F806101068008A091A57
:10093000DFF8C037002018805FF0000C6046C0B2BE
:10094000142845DADFF8B0673768E6465FFA8EFEAE
:1009500057F82E00002808D130686746FFB200EB38
:100960004700B0F8A00000282FD030686746FFB2DB
:1009700000EB8707386D002827D13768E6465FFA15
:100980008EFE57F82E001F8844F82700306867460F
:10099000FFB200EB4700B0F8A000814208DA3068EF
:1009A0006746FFB200EB47000F007F1EA0F8A07063
:1009B00030686646F6B200EB4600B0F8A0001E882C
:1009C00045F826001888401C18801CF1010CB5E77A
:1009D00000252800C0B21E8880B2B0420DD2280087
:1009E000C0B254F820001668B6F95E6080192E0077
:1009F000F6B244F826006D1CEBE71888002803D0F7
:100A00000220DFF8F8261070BDE8F78F2DE9F04FCF
:100A100085B000208DF8040000200090782004901C
:100A200000200390DFF8D8462500039A0499280097
:100A300005F06EF9782002905FF00009DFF8C456E7
:100A40002E004A460299300005F062F95FF03C0A38
:100A50005FF0000BDFF8B06637005A4651463800A9
:100A600005F056F9A34F3868D0F82A10DFF8A081B6
:100A7000D8F80000C089091A00913868008B022854
:100A800004DBD8F80000B0F9609003E0D8F800006B
:100A9000B0F95E90DFF85CA60020AAF80000002103
:100AA0000800C0B2142854DADFF84C2613688C46CC
:100AB0005FFA8CFC53F82C00002808D110680B005A
:100AC000DBB200EB4300B0F8A00000283FD0106874
:100AD0000B00DBB200EB8303186D002837D01368DE
:100AE0008C465FFA8CFC53F82C00BAF8003044F8BE
:100AF000230010680B00DBB200EB8303186DBAF81B
:100B0000003045F82300009813688C465FFA8CFC8F
:100B100003EB4C03B3F8A030984208DA10680B00DE
:100B2000DBB200EB4300009B5B1EA0F8A030106816
:100B30000A00D2B200EB4200B0F9A000BAF80020DF
:100B400026F81200BAF80000401CAAF80000491C60
:100B5000A6E75FF0000B5846C0B2BAF8001080B2AA
:100B600088422ED25846C0B254F8200019EB00003B
:100B70005946C9B244F821005846C0B254F8201072
:100B8000002004F017F95946C9B244F8210058462C
:100B9000C0B255F82010002004F00CF95946C9B233
:100BA00045F821003868008B002807D1D8F80000EC
:100BB000B0F942005946C9B226F811001BF1010BE9
:100BC000C9E7BAF80000002803D00120DFF82C158F
:100BD000087005B0BDE8F08F80B505F0B3FC0028C3
:100BE00005D1DFF8D40490F86500C0060AD41320BC
:100BF000DFF81815A1F84006DFF8BC04417851F081
:100C00001001417001BD0000F08B0020348C0020E9
:100C1000E48C00202C8C00202DE9F0414FF4C876A4
:100C200034000025DFF8E8742A002100380005F0C0
:100C30006FF80027DFF8DC843A003100404605F009
:100C400067F8FFF71DFEDFF8D0040168498F02291D
:100C500027D1DFF8A8440020207026480068008BC8
:100C60000028022803D9C01E012812D91FE0DFF88E
:100C70004804C07AC0B2C009C0B2002804D0002025
:100C80002070FFF7C3FE03E000202070FFF721FE75
:100C90000DE0FFF7BBFE2078002801D1FFF719FE19
:100CA00005E00068408F032801D1FFF795FF002081
:100CB000DFF8681408700020DFF864140870002062
:100CC000DFF8601408600B480068008B002807D02C
:100CD00083480068C2880021012004F012FF05E06B
:100CE000DFF8E803817811F0FE018170BDE8F08142
:100CF000D88C0020DC8C00201A8D00203F8D002035
:100D0000408D0020418D0020228D00203E8D00204E
:100D100038B50025DFF81014087810F0010000281D
:100D20002BD0DFF808040068DFF89C1309688842BC
:100D300080F0B880DFF8F8130888002840F0B2800F
:100D4000DFF88803027852F0080202700020DFF812
:100D5000E423108001200880DFF8DC030068D0F86D
:100D60002E10002004F026F804005D4800688288F8
:100D70002100002004F0C5FE94E00878C0F3400094
:100D8000C0B200282BD0DFF8B4030068DFF83813B6
:100D90000968884280F08680DFF89413088800286C
:100DA00040F08080DFF82403027852F008020270DD
:100DB0000120DFF88023108001200880DFF878030D
:100DC0000068D0F83210002003F0F4FF040044481B
:100DD000006882882100002004F093FE62E0087819
:100DE000C0F38000C0B2002827D0DFF854030068A9
:100DF000B5490968884255D2DFF8341308880028BD
:100E000050D1B248027852F0080202700220DFF896
:100E10002423108001200880DFF81C030068D0F82C
:100E20003610002003F0C6FF04002D4800688288B9
:100E30002100002004F065FE34E00878C0F3C00013
:100E4000C0B2002823D0BF4800689F490968884283
:100E500028D2B7490888002824D19C48027852F04B
:100E6000080202700320B34A108001200880B248B3
:100E70000068D0F83610002003F09CFF04001848EA
:100E8000006882882100002004F03BFE0AE0AE48A2
:100E900000688D490968884204D28748417951F039
:100EA00008014171A2490888002816D0A748007897
:100EB00010F0010000280AD1A5480068824A126893
:100EC00090420AD2002008800120050005E07E48FB
:100ED000006810F5FA709E4908602800C0B232BD63
:100EE000E08C00200300934201DA9A1800E09A1A7D
:100EF0008B4201DAC91A00E0591A914201DA002046
:100F000000E001207047F8B50025924E30780128A6
:100F10000FD173480078002800F0C6806D48006843
:100F20008D49098890FBF1F08C49086002203070EF
:100F3000BAE03078022840F082800020040068483F
:100F40000078002833D105F0D1FC614A624B93F957
:100F5000011002EB810151F8041C401A7E490F88F0
:100F600090FBF7F005007E4893F9013002EB830215
:100F700052F8042C02600268098892FBF1F10160CA
:100F8000012D16DB644800688189002003F012FF00
:100F90000700AF4208DA0320307000204F49087084
:100FA000002004F03BFC04E00120040001E00120EB
:100FB00004002000C0B2002821D06448007810F05E
:100FC000010000280FD1674800683F49096888423E
:100FD00015D211204D49A1F840063748417851F00B
:100FE000100141700BE05F494B480068428E0A20B7
:100FF00042430A600A683448006882180A604E4A10
:101000001068D0F8221044480068C08B091A0D00FF
:10101000554801680868854246DA1068D0F8221001
:10102000002003F0C7FE0500A521002004F084FB8A
:101030002900002004F08BFC0420307034E030786C
:10104000032808D14148007810F0010000282BD176
:101050000020307028E0307804280DD13B4800781B
:1010600010F0010000281FD11748006864303D4986
:1010700008600520307017E03078052814D1394811
:1010800000681149096888420ED20020134908708F
:1010900000203070324E05F029FC306030682E4957
:1010A000098890FBF1F03060F1BD0000E08C002079
:1010B000288D0020268D0020B0440010568D002081
:1010C000208D0020288C0020D88C0020F08B002060
:1010D00034850020C48600202A8D0020558D0020F4
:1010E000578D0020588D0020848A002054880020CD
:1010F000D48A0020248D0020008D0020478D002000
:10110000CC88002044890020248B0020002000107F
:1011100014820020A4830020E48C00204A8D00204B
:101120004B8D0020408C00201A8D0020C08B0020A9
:101130002C8D0020228D0020DC8C0020088C0020CB
:101140000C8C0020108C0020208C00204C460010BD
:10115000488C0020528D0020188D0020388C0020F3
:101160003C8C00204C8C0020F08C00202DE9F84FA6
:101170008AB05FF0000B0020019000200290002454
:1011800000250026DFF8E07C3878012831D00228DD
:1011900000F02681032800F02E81042800F0AB81A6
:1011A000052800F0BB81062800F0C381072800F065
:1011B0003582082800F04482092800F06C830A2850
:1011C00000F09A830B2800F0A8830C2800F0AB8570
:1011D0000D2800F0D4850E2800F0DB85C72821D02B
:1011E000C8283ED0C9285CD0CA2800F0838000F00F
:1011F000EFBDDFF8788C002004F0B2FAC8F80000E8
:10120000D8F80010DFF8680C008841438B46584638
:1012100005F06FFB0020DFF85C1C0870C7203870F9
:1012200000F0D6BDFFF72CFB0120DFF84C1C087046
:101230000321002004F03BFA6422A521002004F0E1
:1012400062FA0022DFF8340C00684188002004F0C4
:10125000F8FAC82038700120DFF8241C087000F06C
:10126000B7BDFFF750FEDFF8180C0078002816D144
:101270000020DFF8041C08700020DFF8081C08704C
:101280000020DFF8041C0870002004F0C7FADFF823
:10129000FC0B017811F0F7010170C920387000F0E3
:1012A00097BDDFF8EC0B00210170DFF8E81B0A7C2A
:1012B000120703D5027852F00102027091F86520FE
:1012C000520703D5027852F00202027091F86520AD
:1012D000D20703D5027852F00402027091F864102C
:1012E000890603D5017851F008010170CA203870D1
:1012F00000F06EBDDFF8A00B0068008B032804D15E
:101300000120DFF8981B088003E00020DFF88C1B29
:101310000880DFF87C0B0178C9071CD5DFF8740B57
:1013200090F86500000704D50220DFF8741B0870F0
:1013300003E00120DFF8681B08705FF010085FF021
:101340000009DFF860AB4A464146504604F0E0FC35
:101350000220387042E00178890711D50220DFF8B9
:10136000401B08705FF010085FF00009DFF834AB35
:101370004A464146504604F0CBFC052038702DE02B
:101380000178490711D50220DFF8141B08705FF0BF
:1013900010085FF00009DFF80CAB4A4641465046A2
:1013A00004F0B6FC0820387018E00178090711D560
:1013B0000120DFF8EC1A08705FF010085FF00009F8
:1013C000DFF8E0AA4A464146504604F0A1FC0B2053
:1013D000387003E0002101700020387000F0F8BC84
:1013E00001F088FFDFF8B40A0088002801D103204B
:1013F000387000F0EDBCDFF8A00A0168098B022903
:1014000009DADFF8A40A0168B1F962100D0000687A
:10141000008A060026E00068008B022809D1DFF868
:10142000880A0168B1F964100D000068C0890600DF
:1014300018E0DFF8600A90F86500000709D5DFF8CA
:10144000680A0168B1F964100D000068C0890600DF
:1014500008E0DFF8540A0168B1F962100D00006875
:10146000008A0600DFF8409AD9F80000B0F844007E
:1014700004002800D9F80010C98F411811F5FA713D
:10148000D9F80000B0F94E00091A00910099002027
:1014900003F090FCDFF8141A096808188046DFF89A
:1014A00004AACAF800802800D9F80010C98F401A91
:1014B000B0F5FA7081464946002003F07BFCDFF866
:1014C000F019096808188346CAF804B0CAF80C4035
:1014D000CAF80860042038700120DFF8D8190870B5
:1014E000DFF8980900688289DAF80010002004F01B
:1014F00008FB00F06DBCDFF8AC0903F0ADF9DFF8D4
:10150000B4090078002807D1DFF88409017811F0C8
:10151000FE010170CA20387000F05ABC01F0EAFEEA
:10152000DFF878090088002801D10620387000F023
:101530004FBCDFF864090068008B022809DADFF885
:1015400068090168B1F962100D000068008A0600A0
:1015500008E0DFF854090168B1F964100D00006873
:10156000C0890600DFF850090068008C04002900DB
:10157000DFF83499D9F80000B0F94E00091AD9F80B
:101580000020D2F84A00091A00910099002003F0C7
:1015900011FCDFF81819096808188046CDF8088092
:1015A0002800D9F80020D2F846100818814649468C
:1015B000002003F0FFFB8246DFF8F408006810EB20
:1015C0000A0ACDF804A0002004F0CAF88346029A63
:1015D00001995846FFF786FC012806DBDFF8C408AE
:1015E000029901600199416005E0DFF8B8080199AE
:1015F000016002994160DFF8AC08C4608660072191
:1016000039700121DFF8AC281170DFF87018096813
:101610008A890168002004F074FAD9E3DFF88408AD
:1016200003F01AF9DFF88C080078002807D1DFF8FA
:101630006008017811F0FD010170CA203870C7E31D
:1016400001F058FEDFF854080088002840F0C083FD
:10165000DFF844080068008B022809DADFF8480840
:101660000168B1F962100D000068008A060008E008
:10167000DFF834080168B1F964100D000068C08912
:101680000600DFF834080068C08B04002900DFF88A
:101690001888D8F80000B0F94E00091AD8F80020D0
:1016A000D2F84A00091A00910099002003F082FB49
:1016B000DFF8F817096808180090009802902800D1
:1016C000D8F80020D2F846100818009000990020A1
:1016D00003F070FBDFF8D81709680818009000982D
:1016E00001905020099000200890DFF8D087C14673
:1016F000089A0999484604F00BFB782007900020CF
:101700000690DFF8BC97CA46069A0799504604F03F
:10171000FFFA5020059000200490DFF8A8A7CDF82C
:101720000CA0049A0599039804F0F2FA039800209B
:1017300004F016F800900220DFF88C170880029A57
:1017400001990098FFF7CEFB012830DBDFF868171E
:101750000868808C002803D00120DFF8182710705B
:101760000968886900900099002003F023FB8346F4
:101770000298C8F80000D8F80000C9F80000D9F8AD
:101780000000B0EB0B00C9F80000CAF80040019857
:10179000C9F80400D9F80400C8F80400D8F8040017
:1017A0001BEB0000C8F80400CAF804402FE0DFF883
:1017B00008170868808C002803D00220DFF8B426C0
:1017C00010700968886900900099002003F0F2FA0F
:1017D00083460198C8F80000D8F80000C9F8000056
:1017E000D9F800001BEB0000C9F80000CAF800405F
:1017F0000298C9F80400D9F80400C8F80400D8F821
:101800000400B0EB0B00C8F80400CAF80440DFF88D
:10181000840690F8650080072DD50320DFF8A81610
:101820000880D8F80400C8F80800D9F80400C9F8FE
:101830000800DAF80400CAF80800D8F80410D8F84C
:1018400000004118C8F80410D8F80400022190FBE9
:10185000F1F0C8F80400D9F80410D9F800004118D4
:10186000C9F80410D9F80400022190FBF1F0C9F87E
:101870000400CAF80440DFF850060088DFF84C1670
:1018800008700020DFF8D81C087009203870DFF8D5
:10189000140686609CE2DFF8C80C90F90010DFF8AF
:1018A0002C2692F90020914208DBDFF8E40501784C
:1018B00011F0FB010170CA20387089E2DFF8E415ED
:1018C000DFF8F82590F9003052F823200A60DFF89D
:1018D000F02590F9003052F823204A60DFF8E42523
:1018E00090F9000052F82000C8600120DFF8C4150C
:1018F00008700A2038706BE2DFF8A80502F0ACFF30
:10190000DFF8B0050078002806D1DFF8540C017824
:10191000491C0170092038705AE201F0EBFCDFF835
:101920007C050088002840F05382DFF86C050068D1
:10193000008B022809D1DFF870050168B1F9641045
:101940000D000068C089060008E0DFF85C0501684A
:10195000B1F962100D000068008A0600DFF8580532
:101960000068808B04002900DFF83C85D8F800006F
:10197000B0F94E00091AD8F80020D2F84A00091A26
:1019800000910099002003F015FADFF8201509688E
:1019900008180090009802902800D8F80020D2F88B
:1019A0004610081800900099002003F003FADFF8B1
:1019B00000150968081800900098019050200890C0
:1019C00000200790DFF8F484C146079A089948463A
:1019D00004F09EF97820069000200590DFF8E0944E
:1019E000059A0699484604F093F950200490002087
:1019F0000390DFF8D094CA46039A0499504604F045
:101A000087F9002003F0ACFE0090DFF8BCA40020B2
:101A1000AAF80000029A01990098FFF763FA0128DA
:101A20005DDBDFF8940401684869009000990020AC
:101A300003F0C0F983460298BAF8001048F8210074
:101A4000BAF8000049F82040BAF80000401CAAF893
:101A50000000DFF8400490F86400000630D5D8F8A4
:101A60000000BAF8001048F82100BAF8000058F851
:101A70002000B0EB0B00BAF8001048F82100BAF8CB
:101A8000000049F82040BAF80000401CAAF8000005
:101A90000198BAF8001048F82100BAF8000058F888
:101AA00020001BEB0000BAF8001048F82100BAF83B
:101AB000000049F82040BAF80000401CAAF80000D5
:101AC0000198BAF8001048F82100BAF8000049F867
:101AD0002040BAF80000401CAAF800005AE0DFF8E5
:101AE000D8030168486900900099002003F062F96A
:101AF00083460198BAF8001048F82100BAF80000AF
:101B000049F82040BAF80000401CAAF80000E1485B
:101B100090F8640000062FD50198BAF8001048F834
:101B20002100BAF8000058F820001BEB0000BAF8BA
:101B3000001048F82100BAF8000049F82040BAF82F
:101B40000000401CAAF800000298BAF8001048F8FB
:101B50002100BAF8000058F82000B0EB0B00BAF8EA
:101B6000001048F82100BAF8000049F82040BAF8FF
:101B70000000401CAAF800000298BAF8001048F8CB
:101B80002100BAF8000049F82040BAF80000401CD3
:101B9000AAF80000BF4890F86410490640F1B680EA
:101BA00090F86400000676D5BAF8000008EB8000D3
:101BB00050F8080CBAF8001048F82100BAF80000F4
:101BC00009EB800050F8080CBAF8001049F8210021
:101BD000BAF8000008EB800050F8081CBAF80000C2
:101BE00008EB800050F8100C4118BAF8000008EB20
:101BF000800040F8081CBAF8000008EB800050F89C
:101C0000080C022190FBF1F0BAF8001008EB8101FA
:101C100041F8080CBAF80000401CAAF80000BAF815
:101C2000000008EB800050F8080CBAF8001048F8E3
:101C30002100BAF8000009EB800050F8080CBAF84F
:101C4000001049F82100BAF8000008EB800050F8B5
:101C5000081CBAF8000008EB800050F8100C41187E
:101C6000BAF8000008EB800040F8081CBAF8000041
:101C700008EB800050F8080C022190FBF1F0BAF854
:101C8000001008EB810141F8080CBAF80000401C74
:101C9000AAF800003AE0BAF8000008EB800050F81B
:101CA000040CBAF8001048F82100BAF8000009EB5B
:101CB000800050F8040CBAF8001049F82100BAF876
:101CC000000008EB800050F8041CBAF8000008EB94
:101CD000800050F8080C4118BAF8000008EB8000AA
:101CE00040F8041CBAF8000008EB800050F8040C1F
:101CF000022190FBF1F0BAF8001008EB810141F8E5
:101D0000040CBAF80000401CAAF80000BAF8000061
:101D10006E4908700020DFF8481808700C203870F1
:101D20006048866054E0DFF8381891F90000674A8F
:101D300092F90020904207DB5548017811F0F70135
:101D40000170CA20387043E056485C4A91F900306F
:101D500052F8232002605B4A91F9001052F82110DA
:101D6000C160464909688A890168002003F0C9FEFC
:101D70000D2038700020DFF8C419086028E0012029
:101D80004C4908704748C06802F006F80E203870C9
:101D90001EE0DFF81081DFF8A499D9F80010D8F818
:101DA000080002F00BFC4348007800280FD1D9F856
:101DB0000000D8F80C10884207D3DFF8A407017898
:101DC000491C01700C20387001E00D203870FFE7CD
:101DD0000BB0BDE8F08F2DE9F04104000D000026A6
:101DE000DFF85C190878002815D1012008702F0051
:101DF000DFF85089B8F8000001281DD12A48006892
:101E0000B0F96A10002002F0D5FFC01907000220C7
:101E1000A8F8000010E000200870A04622480068E2
:101E2000B0F96A10002002F0C5FF0700B8EB070701
:101E30000120DFF8101908800021002003F037FC92
:101E40006421002003F04BFC6421002003F074FCAB
:101E50000A4800684189002003F035FC3900002061
:101E600003F098FCBDE8F081538D0020248C002005
:101E7000188D0020488D0020558D0020E08C00201A
:101E8000528D0020578D0020588D0020F08B0020AF
:101E9000518D0020B0440010DC8C0020268D0020E5
:101EA000568D0020948B0020E48C00203C8C002078
:101EB000388C00204E8D0020E88C0020848A002081
:101EC00054880020D48A0020248D00204A8D0020D0
:101ED000F8B5DFF87458287801281BD1DFF86C08B2
:101EE0000068DFF8301B0968884280F037830020E3
:101EF000DFF85C1808600020DFF858180860002040
:101F0000DFF83C1808700020DFF83818088002203D
:101F1000287023E3287802281DD1DFF8440690F9C1
:101F20000000DFF8241C91F90010884280F216832B
:101F300014202870DFF8E00A017811F0F701017031
:101F4000DFF8D00A00683230DFF80418086000209B
:101F500003F064FC02E3287814281AD1DFF8BC0AE5
:101F6000007810F00100002807D0DFF8A80A006808
:101F70006430DFF8DC170860F0E2DFF8D4070068AF
:101F8000DFF8901A0968884280F0E8820320287000
:101F9000E4E22878032834D10021DFF8780A0068C9
:101FA000DFF8A82712689042C0F0D882DFF8700AE4
:101FB0000068008B002812D0DFF8680A0078C0F3B0
:101FC000C000C0B2002814D0DFF8500A0078C0F377
:101FD0004000C0B200280CD10120010009E0DFF868
:101FE000440A4078C0F34010C0B2002801D001205C
:101FF00001000800C0B2002800F0B0820420287060
:10200000ACE22878042827D1DFF8D40A0168DFF889
:102010005025DFF8D00A92F9003050F8230041181B
:102020000C00DFF8C40A0068C08C002809D0DFF873
:10203000BC0A92F9001050F82100022190FBF1F047
:102040000419DFF8AC0A006882892100002003F03F
:1020500058FD0520287081E22878052858D1DFF83E
:10206000BC09007810F00100002806D0DFF8A409B0
:1020700000683230DFF8D8160860DFF8D406006850
:10208000DFF890190968884280F06882DFF89009CB
:102090000068008B002823D0DFF8B00A0068C689EA
:1020A0003100012002F086FE0400DFF8440A0068D7
:1020B000C2884FF4FA71012003F023FD0020DFF8FD
:1020C000901A0880DFF88C0ADFF8941491F9001058
:1020D00030F91100DFF87C1608603C2028703DE2E2
:1020E000DFF83409817851F001018170DFF864066E
:1020F000DFF8601ADFF8682492F9002031F9121035
:1021000001600068DFF8481A08800720287025E27F
:1021100028783C2802D1062028701FE228783D2824
:1021200021D1DFF8F8080078C0F34000C0B20028E1
:1021300040F01482DFF8140A0068C089DFF8A8199B
:102140000968498D46183100012002F033FE040071
:10215000DFF89C09006802892100012003F0D1FC0E
:102160003E202870FAE128783E2847D1DFF8AC08F5
:102170000078C0F34000C0B200280FD0DFF8D015BF
:10218000DFF8C8090068428D0A2042430A600A68E5
:10219000DFF88008006882180A60DFE1DFF8B00528
:1021A0000068DFF870180968884280F0D781DFF88E
:1021B00030090168DFF82C09DFF8A42392F9002028
:1021C00050F8220041180C000021002003F06FFAA3
:1021D0006421002003F083FA6421002003F0ACFAAC
:1021E000DFF80C0900684189002003F06CFA210037
:1021F000002003F0CFFA06202870AFE128780628E7
:102200003AD1DFF81808007810F00300032800F036
:10221000A581DFF83C19DFF83C050A8803689A427B
:1022200027D200680E88861BDFF820291068B0F8D6
:102230004200B04206DA0B881068B0F84200C318BA
:102240000B8002E00888301808801068C08909886F
:102250000F18072028703900012002F0ABFD0400A0
:10226000DFF88C08006802892100012003F049FC96
:1022700074E10A20287071E1287807283BD10021F9
:10228000DFF89C070068008B00280AD0DFF88C0775
:102290000078C0F34000C0B200280CD1012001003A
:1022A00009E0DFF880074078C0B2C009C0B200285A
:1022B00001D0012001000800C0B200280BD0DFF8D7
:1022C00068090068DFF84C271268904280F0468168
:1022D0000820287042E1DFF85029DFF87008006814
:1022E000438D0A20434313601368DFF82807006812
:1022F000C318136032E12878082819D1DFF8E00705
:1023000006689749DFF8DC0791F9002050F82200B1
:1023100086193700DFF8D40791F9001050F8210032
:10232000C71939003000FFF756FD0920287015E164
:102330002878092822D1DFF8E406007810F001009F
:1023400000280BD1DFF808040068DFF8C816096818
:10235000884280F003815A202870FFE0DFF8F013F4
:10236000DFF8E8070068428E0A2042430A600A68E4
:10237000DFF8A006006882180A60EFE028785A2883
:1023800033D1DFF89C060068008B00282AD0062095
:102390002870DFF8B003018801290FD1DFF8AC07FE
:1023A0000068B0F96A502900002002F003FD040023
:1023B000DFF8C809016A61180162CFE000880228CD
:1023C00040F0CC80DFF884070068B0F96A5029003B
:1023D000002002F0EFFC0400DFF8A009016A091BED
:1023E0000162BBE00A202870B8E028780A2832D1C0
:1023F000DFF82806007810F0030F40F0AF80DFF818
:10240000E8060068C08C002822D0DFF8D4060168F6
:10241000DFF8D006524A92F9002050F82200411805
:102420000C000021002003F042F96421002003F099
:1024300056F96421002003F07FF9DFF8B406006844
:102440004189002003F03FF92100002003F0A2F9A8
:102450006420287082E02878642812D1DFF8BC0557
:10246000007810F0030F79D100200400DFF8800617
:102470000068C2882100012003F043FB652028701A
:102480006CE0287865281DD1DFF89015087810F0E9
:10249000030F63D1DFF888050068008B002808D09F
:1024A0000878C0F34000C0B2002857D10B20287034
:1024B00054E0DFF86405817811F0FE0181700B2093
:1024C00028704BE028780B2831D1DFF854050068DC
:1024D000008B00280AD0DFF84C050078C0F3C0005C
:1024E000C0B200283AD00C20287037E0DFF834055D
:1024F0004078C0F34010C0B2002809D0944800686A
:10250000DFF810150968884228D20C20287025E0D1
:102510008F49DFF838060068028E0A2042430A60BD
:102520000A68DFF8F004006882180A6016E028786C
:102530000C2813D10A480178491C01700021804AF7
:10254000117090F90000DFF8001691F90010884230
:1025500002DA0320287001E000202870F1BD00009D
:102560004B8D002038B5DFF80C4A2078012808D0C0
:10257000022812D0032832D0042847D00A2866D077
:1025800068E0DFF8C8050068408B002802D0022010
:10259000207001E0032020705CE0DFF8DC090068B7
:1025A000DFF870140968884218D2FEF769F9012033
:1025B000DFF8801A08700321002003F078F8642205
:1025C000A521002003F09FF80022DFF82405006811
:1025D0004188002003F035F9042020703AE0DFF84C
:1025E00098090068DFF82C14096888420DD2DFF8DA
:1025F000480A0068DFF8E8140860DFF8400A00883D
:10260000DFF8C41B08700A20207023E0DFF8300ACE
:10261000007800281AD000250020DFF8181A08706A
:10262000002003F0FBF80A202070DFF8180A006889
:10263000DFF8141A098890FBF1F0DFF8A4140860A1
:10264000DFF8F8190988DFF8802B117002E000200C
:102650002070FFE731BD10B5DFF818492078012858
:1026600008D002281CD0032832D004283DD00A28E4
:102670005BD062E0DFF89C030068DFF8FC180968B3
:1026800088425AD3DFF8C4040068808B002804D045
:10269000FEF7F6F80220207001E0032020704CE0E5
:1026A0000120DFF8901908700321002002F0FFFFDD
:1026B0006422A521002003F026F80022DFF8300470
:1026C00000684188002003F0BCF80420207034E04A
:1026D0000020DFF860190870DFF85C090068DFF897
:1026E000001408600A20207027E0DFF85409007801
:1026F000002819D00020DFF83C190870002003F0F2
:102700008DF8DFF81403017811F0F70101700A2049
:102710002070DFF830090068DFF82C19098890FB79
:10272000F1F0DFF8BC13086007E0BC48007810F057
:102730000100002801D10020207010BD1C8C002059
:10274000498D00202E8D0020548D00202C8C0020DF
:10275000508C0020588C002070B50024DFF86C0AE3
:102760000078042803D10A20DFF8641A0870DFF823
:10277000605A287801280DD10020AB490870DFF895
:10278000F8070068A3490968884280F04281022066
:1027900028703EE12878022821D1A34890F9000052
:1027A000DFF8A41391F90010884280F2328164208E
:1027B00028709948017811F0F70101709548006878
:1027C0003230DFF8101A08609448007810F00100E9
:1027D000002800F01E81002003F020F819E128787D
:1027E000642817D18D48007810F0010000280AD124
:1027F000DFF8E009006887490968884280F00981AC
:102800000320287005E1834800686430DFF8C419AC
:102810000860FEE02878032827D10021804800685E
:10282000008B002810D07F480078C0F3C000C0B2F1
:10283000002812D079480078C0F34000C0B20028C8
:102840000BD10120010008E076484078C0F3401029
:10285000C0B2002801D0012001000800C0B2002849
:1028600000F0D78004202870D3E0287804281BD1FA
:10287000DFF87C0A6C4991F9001050F82110002013
:1028800002F098FA96490968081804009848006808
:1028900082892100002003F034F9052028700020EF
:1028A000DFF8AC1A0860B4E0287805280FD1DFF80B
:1028B000A40A5D4991F9001050F8210001F06CFA6A
:1028C000062028700120DFF8901A0870A1E028780F
:1028D00006281FD1DFF8786A31689C480068008AB2
:1028E00001F06CFEDFF8700A0078002840F091805B
:1028F0003068DFF8601A4C4A92F9002051F8221033
:10290000884204D3072028700020306081E0052031
:1029100028707EE02878072810D143480178491CA8
:10292000017090F90000884991F90010884202DB9B
:10293000002028706DE0042028706AE028780A28BA
:1029400014D1364E3078C0F34000C0B2002802D017
:10295000012002F063FF307810F00100002802D05F
:10296000002002F05BFF0B20287052E028780B2833
:102970002DD12A48007810F0030F4AD1284800686A
:10298000008B002812D127484078C0B2C009C0B2DD
:10299000002805D12048807810F00100002813D0CD
:1029A0001D48817811F0FE0181700DE01D4800780E
:1029B000C0F3C000C0B2002806D14D4800680289AB
:1029C0000021012003F09DF80C20287021E02878D8
:1029D0000C281ED112480068008B002809D111482C
:1029E0004078C0F34010C0B2002812D000202870F8
:1029F0000FE00A480078C0F34000C0B2002808D1B8
:102A000008480078C0F3C000C0B2002801D0002000
:102A1000287070BDD88C0020F08B00204C46001030
:102A2000DC8C0020D88B00204B8D002038B5DFF8DF
:102A3000885A2878012827D144480068808B0028CC
:102A40000ED0002002F08CFEDFF8EC150860DFF8F5
:102A5000F815098848430400200003F04AFF0CE001
:102A6000DFF8580A0168D1F82E0004002100002088
:102A700002F0A0F9DFF8C0150860022028700120DC
:102A8000DFF8F01408702AE02878022809D1FFF74F
:102A9000E2FDDFF8E0040078002820D10320287050
:102AA0001DE02878032807D1DFF8C8040078002843
:102AB00015D10420287012E02878042804D103F0EE
:102AC00029FD052028700AE02878052807D103F0A1
:102AD000CAFD03F03BFD002801D00020287031BD65
:102AE000388C0020CC880020E88C0020448900200D
:102AF000E08C002010B50024DFF8C0090068008BCE
:102B0000002813D0DFF8B8090078C0F3C000C0B2C5
:102B1000002816D0DFF8AC090078C0F34000C0B23E
:102B200000280ED1FEF7F4F804000AE0DFF890095F
:102B30004078C0F34010C0B2002802D0FEF7E8F899
:102B400004002000C0B210BD4A8D0020E48C00209B
:102B5000288D0020248B002010B400200022DFF8F4
:102B600068391988002908D1DFF8F81B0B68196843
:102B7000002955D50121080052E01988012918D1F2
:102B8000DFF838190C68D4F8323044F62164A342D7
:102B900046D30968D1F83230DFF83019CB181A0063
:102BA000DFF8C01B0B681968914239D20121080077
:102BB00036E01988022918D1DFF800190C68D4F81A
:102BC000363044F62164A3422AD30968D1F836305E
:102BD000DFF8F818CB181A00DFF8881B0B681968A3
:102BE00091421DD2012108001AE01988032917D14A
:102BF000DFF8C8180C68D4F8023044F62164A34208
:102C00000ED30968D1F80230DFF8C018CB181A00CB
:102C1000DFF8501B0B681968914201D201210800AE
:102C2000C0B210BC70470000548C002038B500249E
:102C3000DFF89C58287801280AD1DFF89808006846
:102C4000002802D00020287096E00220287093E02F
:102C5000287802281FD10021002002F028FD9622AA
:102C60009621002002F04FFD0122DFF86C08006879
:102C70008088022190FBF1F0010089B2002002F06F
:102C8000E0FDDFF8E40A00683230DFF8E01A08609F
:102C90000320287070E0287803283ED1DFF8200850
:102CA0000078C0F34000C0B200282BD1DFF8240820
:102CB000006800280DD0DFF8B40A0068DFF8A81A11
:102CC0000968884258D204202870002002F0A6FD2E
:102CD00052E0DFF8940A00683230DFF8901A08609A
:102CE000FFF73AFF04002000C0B2002844D00E20B5
:102CF000DFF87C1AA1F8400606202870002002F0B8
:102D00008DFD39E00E20DFF8681AA1F84006062094
:102D10002870002002F082FD2EE0287804281FD1C0
:102D2000DFF8A007007810F0010000280AD1DFF8D2
:102D30003C0A0068DFF8301A096888421CD201207A
:102D4000287019E0DFF8200A0168DFF8D40A00686B
:102D5000428E0A2000FB0211DFF8100A01600BE02E
:102D60002878062808D1DFF85C07007810F0010009
:102D7000002801D16420287031BD00007845001082
:102D800080B5DFF8A00A4078C0F3C000C0B20028C8
:102D900000F0EF80DFF8900A0168098D012900F04A
:102DA000E8800168098D02293AD1DFF81C07008804
:102DB000002840F0DE80DFF81C0C007810F00100E5
:102DC000002800F0D680DFF8F4060168D1F836005C
:102DD000DFF890190A68116800F59C40203088429D
:102DE00080F0C78063480078012805D0DFF8E80B41
:102DF0000078012840F0BD800E20DFF87419A1F89A
:102E00004006DFF8C006007810F00100002802D06C
:102E1000002002F003FD0020DFF8F41B0870A8E09A
:102E20000068008D002840F0A480DFF89C16088818
:102E3000002833D1DFF89C0B007810F00100002847
:102E40002CD0DFF878060168D1F83200DFF81419C9
:102E50000A68116800F59C402030884280F0898023
:102E600044480078012805D0DFF86C0B0078012871
:102E700040F07F800E20DFF8F818A1F84006DFF858
:102E80004406007810F00100002802D0002002F073
:102E9000C5FC0020DFF8781B08706AE0088801286C
:102EA00032D1DFF8300B0078C0F34000C0B2002808
:102EB0002AD0DFF808060168D1F83600DFF8A41838
:102EC0000A68116800F59C402030884251D2294898
:102ED0000078012804D0DFF8000B0078012848D1E1
:102EE0000E20DFF88C18A1F84006DFF8D80500782E
:102EF00010F00100002802D0002002F08FFC00201A
:102F0000DFF80C1B087034E00888022831D1DFF8A4
:102F1000C40A0078C0F38000C0B2002829D0DFF8CE
:102F20009C050168D1F80200DFF838180A681168BA
:102F300000F59C40203088421BD20E4800780128C2
:102F400004D0DFF8940A0078012812D10E20DFF8AF
:102F50002018A1F84006DFF86C05007810F0010099
:102F6000002802D0002002F059FC0020DFF8A01A4F
:102F7000087001BD448D0020348C002030B4002442
:102F8000DFF838050068D0F82A10DFF894281068B8
:102F9000C089091ADFF87C3A1868C08B814203D2D5
:102FA0000800401E1C68E0831868008C814203D230
:102FB0000800401E1C682084DFF8684894F865000B
:102FC000000709D51068B0F84400814204D2080017
:102FD000401E1568A5F844001068D0F80650106827
:102FE000008A2D1A1068008F854203D22800401EE7
:102FF000116808871068008B854203D22800401EA4
:10300000116808831868808B854203D22800401E0F
:103010001968888394F86500000709D41068B0F82F
:103020004400854204D22800401E1168A1F84400E3
:1030300030BC7047558D0020248C0020248D00204A
:10304000578D0020C4860020188D002010B5DFF8B1
:10305000D8070168098D01291DD1DFF878090178A9
:1030600011F0FE010170DFF8B009017811F0F701ED
:103070000170DFF848040068D0F82E10002001F03D
:1030800099FE0400DFF850040068828821000020C7
:1030900002F037FD2EE00168098D02290DD1DFF81D
:1030A00028140888002802D1FDF7E0F822E00888FB
:1030B00002281FD1FDF7D7F91CE00068008D002819
:1030C00018D1DFF804140888002802D1FDF7CEF8E3
:1030D00010E00888012802D1FDF747F90AE00888C6
:1030E000022802D1FDF7BFF904E00888032801D1C6
:1030F000FDF737FA10BDDFF8C4030068008A002826
:1031000061D1DFF824170868008D00281ED1DFF890
:103110000809DFF8C0180A78037862F30003037027
:103120000A78D2B25208037862F3410303700A7836
:10313000D2B29208037862F3820303700978C9B2AD
:10314000C908427861F3410242703CE00868008D92
:10315000012818D1DFF8C008DFF878180A7803785A
:1031600062F3000303700A78037862F3410303708B
:103170000A78037862F3820303700978427861F376
:10318000410242701FE00868008D02281BD1DFF861
:103190008808DFF840180A78037862F300030370A8
:1031A0000A78037862F3410303700A78D2B2920876
:1031B000037862F3820303700978C9B28908427800
:1031C00061F34102427070474A8D0020508D00200B
:1031D0004F8D00205C8C0020DFF8B029002010808B
:1031E000DFF8AC1900200870DFF834361868408F1B
:1031F00001283BD1B14B1868008B022807D0186812
:10320000008B012803D01868008B002802D1012010
:1032100008706CE01868008B032803D01868008BD6
:10322000042864D11868008B032801D10120108084
:10323000DFF8F005027C120709D590F86500000759
:1032400002D50220087052E0012008704FE090F88B
:10325000652012F0050F02D00220087047E090F8B8
:103260006400800643D50120087040E01868408F54
:1032700002282BD1914B1868008B022807D01868C0
:10328000008B012803D01868008B002802D1012090
:1032900008702CE01868008B032803D01868008B96
:1032A000042824D11868008B032801D10120108044
:1032B000DFF8340B0278012A02D10220087016E0F0
:1032C0000078022813D10120087010E01868408FA0
:1032D000002804D1012010800120087007E0186840
:1032E000408F032803D10020108000200870704711
:1032F000848A002080B571480068008B002806D0C1
:1033000002280ED003D304280BD007D31BE0FCF710
:1033100074FF0020DFF87418088018E0FDF7C3F987
:1033200015E00020DFF864180880DFF864080178F1
:10333000012902D1FCF761FF04E00078022801D1E5
:10334000FCF722FF03E00020DFF84018088001BDF1
:103350001C8C0020D48A00204E8D002038B5564D9C
:10336000287801280FD0C0F0A68003283DD032D3A2
:1033700005285AD04FD3072800F08A8074D3082834
:1033800000F0968097E0DFF898040068408B0028F2
:103390000ED0002002F0E4F9DFF8501A0860DFF8E0
:1033A000501A098848430400200003F0A2FA0BE0F9
:1033B00042480168D1F82E0004002100002001F0ED
:1033C000F9FCDFF8281A08600120DFF8281A0870D5
:1033D000022028706FE0FFF7C5F8DFF8180A0078C0
:1033E000002801D10320287065E0DFF8FC0901788E
:1033F000012906D10120DFF8001A08700420287086
:1034000008E00078022805D1072028700120DFF8A5
:10341000EC1908704FE0FEF75BFDDFF8DC0900787F
:10342000002801D10520287045E0FDF752FADFF8A9
:10343000B8090078022814D10120DFF85417087069
:103440001E480068008B032804D10120DFF83C17D8
:10345000088003E00020DFF8341708800620287079
:1034600001E00820287026E0FFF744FFDFF81C0782
:10347000008800280BD10120DFF880190870DFF8E0
:1034800080090088DFF87C1908700720287012E096
:10349000FFF762F9DFF864090078002807D10948CE
:1034A000007810F00100002801D10820287002E007
:1034B00000202870FFE731BD438D0020DC8C002008
:1034C000D88B00204C460010228D0020E0B1FFFF79
:1034D000458D002010824142E08C002038B5DFF895
:1034E00030552878642808D1DFF8200B00880028A0
:1034F00040F036810120287032E1287801280AD175
:10350000FDF78AFBFFF768FE672028700020DFF8D0
:10351000001B088024E1287867280AD1FFF7EAFE1B
:10352000DFF868060088002840F01A810220287021
:1035300016E1287802280ED1FFF7DCFA04002000FB
:10354000C0B2002800F00C81032028700120DFF8B1
:10355000C41A087004E12878032813D1FFF766FB2A
:10356000DFF8B01A0878002802D104202870F7E0AC
:103570000878642840F0F480AA48417851F010019E
:103580004170EDE02878042831D1A5490868408FC2
:1035900000280AD10120DFF8801B08700020DFF826
:1035A0005418087005202870DAE00868408F022857
:1035B00006D10120DFF8641B087006202870CFE0D8
:1035C0000868408F012806D10120DFF8541B0870DD
:1035D0000F202870C4E00868408F032840F0C080A6
:1035E0000B2028700120DFF8341B0870B8E0287821
:1035F00005280AD100F0B4FDDFF81C0B0078002884
:1036000040F0AE8016202870AAE0287806280AD15B
:10361000FFF7A4FEDFF8040B0078002840F0A0803C
:10362000162028709CE028780B2812D1FFF7FEF9AD
:10363000DFF8E80A0078002840F09280DFF8E40A1A
:10364000007810F00100002840F08A8016202870D1
:1036500086E028780F2810D1FDF788FDDFF8C00A32
:10366000007800287CD1DFF8BC0A007810F0010057
:10367000002875D11620287072E0287814286FD0A1
:10368000287816281AD13B480078C0F3C000C0B291
:10369000002802D01720287062E0DFF8880A00783E
:1036A000C0F34000C0B200285AD1DFF87C0A00689D
:1036B00082880021012002F024FA51E0287817289E
:1036C00017D10020DFF8401B08700020DFF85C1ADB
:1036D00008700020DFF82C170870DFF8480A00781F
:1036E00010F0010000283BD1FFF7B0FC1820287033
:1036F00036E02878182833D1DFF8280A007810F04F
:10370000010000282CD1C348026811680268491CD6
:10371000116001680868C82103F06AFAFFF7EBFC42
:103720003F490868408F032807D1002028703D4892
:10373000427812F0F702427001E001202870DFF8B1
:10374000F0290868008D401C106011684FF47A70F1
:10375000414311601168DFF8DC090068411811600D
:1037600031BD0000F08C0020D88C0020608C00203F
:1037700000200010D88B002010B52A4C6078C0F3D0
:10378000C000C0B2002802D0FFF7A8FE35E000203C
:10379000DFF86016087000208F4908708D4908789E
:1037A000C0B2C009C0B2002827D0DFF88409006881
:1037B000DFF88029126890421FD29748027812F0F1
:1037C000BF020270027812F0EF020270DFF868297F
:1037D0001268128B032A04D10120DFF860291080BF
:1037E00007E0027812F07F020270027812F0DF0226
:1037F0000270087810F07F000870FFF7C1FADFF858
:103800002409007810F0030F09D16078C0F340104C
:10381000C0B2002803D101F075FBFFF7AFFB10BD6C
:10382000E48C0020B0440010F48C00202DE9F0411D
:10383000DFF8C0653078012813D1DFF8CC090078B3
:10384000002800F0C480DFF8F8080068DFF8A01551
:10385000098890FBF1F0DFF8EC1808600220307066
:10386000B5E03078022840F08580DFF89C090078C8
:1038700000282DD103F03AF8DFF8CC18DFF8CC2877
:1038800092F9012001EB820151F8041C401ADFF883
:103890006015098890FBF1F00400012C1ADBDFF8B9
:1038A000B0080068B0F80C804146002001F082FAB0
:1038B0000700A74209DA042030700020DFF86C18F6
:1038C0000870002001F0AAFF04E00120050001E0DB
:1038D000012005002800C0B2002828D0DFF84408E5
:1038E000007810F00100002812D1DFF868080068A5
:1038F000DFF840180968884219D21120DFF85818FB
:10390000A1F84006A348417851F0100141700EE043
:10391000DFF84018DFF838080068428E0A2042437A
:103920000A600A68DFF80C08006882180A60DFF88D
:1039300008180868D0F82220DFF814080068C08B47
:10394000121A1400DFF814080268106884423EDA84
:103950000868D0F82210002001F02CFA0400A521FC
:10396000002001F0E9FE2100002001F0F0FF04201A
:1039700030702CE03078042818D1DFF8A8070078E0
:1039800010F00100002822D1DFF8C817DFF8C007C7
:103990000068428E0A2042430A600A68DFF89407F2
:1039A000006882180A600520307010E03078052821
:1039B0000DD1DFF8A0070068DFF8781709688842A2
:1039C00005D20020DFF86417087000203070BDE8D1
:1039D000F08100001A8D0020528D00200022DFF8B7
:1039E000C41B00200870DFF8C00B0368DFF8BC0BB5
:1039F0000068C318022093FBF0F0DFF8B43B1B68AB
:103A0000834202DA01220A7001E002220A70704742
:103A1000428D0020E88C0020F08B002038B5002477
:103A2000DFF82C170868808A002802D1200040B2F5
:103A3000AAE00868808A012831D1DFF8C82392F90A
:103A40000000022802DA200040B29DE0DFF8643B6B
:103A500093F90000002802D10120040092E00868D8
:103A6000C08A0228C0F28E800868C08A92F90020BD
:103A7000904200F0878093F900000968C98A491EC6
:103A8000884202D0200040B27EE04248407BC0F332
:103A90008010C0B2002875D00120040072E00868D0
:103AA000808A022832D1DFF85C0390F90020022AD4
:103AB00002DA200040B267E0DFF8F82A92F900301D
:103AC00090F900506D1EAB4202D10120040059E074
:103AD0000B68DB8A022B55DB0B68DB8A90F9000050
:103AE00083424FD092F900000968C98A491E884272
:103AF00002D0200040B247E02648407BC0F380104F
:103B0000C0B200283ED0012004003BE00868808A53
:103B1000062802D10120040034E00868808A0428C5
:103B200002D1012004002DE00868808A032813D107
:103B3000184881798DF80010C0798DF80100BDF822
:103B400000100122DFF86C0A90F900008240114257
:103B500018D00120040015E00868808A072811D1D8
:103B6000A84890F90000012802D0200040B20BE0E4
:103B7000FFF734FFDFF82C0A0078012802D101207A
:103B80000400FFE7200040B232BD0000268D002077
:103B9000568D0020B044001038B40020DFF8B02566
:103BA0001168898A022930D1964B93F900100229B5
:103BB00001DA40B2ACE0DFF8FC4994F900100029CA
:103BC00002D101210800A2E01168C98A0229C0F2CD
:103BD0009E801168C98A93F90030994200F097805D
:103BE00094F900101268D28A521E914201D040B25C
:103BF0008EE0DFF8C419497BC1F38011C9B20029F6
:103C000040F085800121080081E01168898A01293E
:103C100030D17C4991F90030022B01DA40B277E0D3
:103C2000DFF8903993F9004091F900506D1EAC42D5
:103C300002D1012108006AE01468E48A022C66DBE4
:103C40001468E48A91F900108C4260D093F9001056
:103C50001268D28A521E914201D040B258E0DFF879
:103C60005819497BC1F38011C9B200294FD10121F4
:103C700008004CE01168898A052902D10121080059
:103C800045E01168898A042902D1012108003EE03B
:103C90001168898A032914D1DFF81C190A7A8DF872
:103CA0000020497A8DF80110BDF800200123DFF8CB
:103CB000041991F900108B401A4228D00121080004
:103CC00025E01168898A07290ED14E4991F9001023
:103CD000012901D040B21BE0DFF8C8180978022999
:103CE00015D10121080012E01168898A08290ED136
:103CF000444991F90010022901D040B208E0DFF8F0
:103D0000B41891F90010012901D10121080040B235
:103D100032BC704738B5DFF820040068808B00287B
:103D20001ED0DFF89008DFF8881890F9002051F8CD
:103D30002210DFF8002B90F9000052F82000411803
:103D4000022091FBF0F4DFF808040068B0F95C1081
:103D5000002001F02FF80019DFF8DC1A08601AE0E3
:103D6000DFF84C08DFF84C1891F9001050F82140AA
:103D7000DFF8DC030068B0F95C10002001F01AF8ED
:103D800005002D1940F2DC51002001F013F8281A2B
:103D9000DFF8A41A086031BD30B4DFF8B42311682D
:103DA000C98E00291AD01168898E814212DA002149
:103DB000DFF8884A2368C31A1568AD8E9D4205D284
:103DC00021681268928E891821600AE021685B18C8
:103DD000236006E0DFF8641A086002E0DFF85C1A8E
:103DE000086030BC70470000478D0020248C002004
:103DF000188D0020448D0020548D00204F8D002010
:103E0000248D00204A8D00202DE9F0410022002160
:103E100000240020020092B2142A1EDADFF8203AB1
:103E200000221D680600B6B205EB86056A661D68AD
:103E30000600B6B245F826201D680600B6B205EBAE
:103E40008605C5F8C8201B680500ADB203EB8503E5
:103E500013F596731A60401CDCE7DFF8E829BB4DC8
:103E600095F900301668B38195F901301268D38155
:103E700095F90020152A01DB142701E095F900705F
:103E80005FF000084046390080B289B2884219D2FA
:103E9000AB48414689B250F82100DFF8AC190988D7
:103EA00090FBF1F004002100002000F0C1FFDFF8DA
:103EB00090190968424692B201EB8201486618F1F6
:103EC0000108DFE795F90100152801DB142601E060
:103ED00095F9016000273800310080B289B288422C
:103EE00017D29948390089B250F82100DFF85819E3
:103EF000098890FBF1F004002100002000F098FFF9
:103F0000DFF83C1909683A0092B241F822007F1CA0
:103F1000E1E795F90000DFF828190B681A68D1F875
:103F200000C0DCF86430D1F800C0D21ACCF8C82048
:103F30000122130006009BB2B6B2B3422CD20E6827
:103F40001700BFB256F827300E681700BFB206EB55
:103F500087077E6E0F6894461FFA8CFC07EB8C0770
:103F60009B1BC7F8C8300B681600B6B203EB860679
:103F7000736E0E681700BFB206EB870757F8046C24
:103F80000F6894461FFA8CFC07EB8C0717F59677A1
:103F90009B1B3B60521CCCE701210A0092B295F9B1
:103FA00000309A4213DA664A0B009BB252F8232083
:103FB000DFF894381B8892FBF3F2DFF8F4350E003B
:103FC000B6B203EB860343F8042C491CE5E795F9E8
:103FD0000120521E00231800110080B289B28842CD
:103FE00011D25948190089B250F82100DFF8581849
:103FF000098890FBF1F0DFF83C181D00ADB241F8E4
:1040000025005B1CE7E7BDE8F08100001E8D002065
:104010002C8D0020458D00202DE9F84F86B05FF0F3
:10402000000A0024002502A8102103F005F94748E2
:104030000678DFF81478DFF80881D8F800103A889D
:1040400091FBF2F1DFF864251160DFF8FC9090F944
:10405000010009EB800050F8040C398890FBF1F066
:10406000DFF8441508603000C0B202284EDB0120A2
:10407000050028003100C0B2C9B2884246D22800EB
:10408000C0B258F82000398890FBF1F002900DF191
:10409000080A2800C0B209EB800050F8040C3988E7
:1040A00090FBF1F0CAF804000299DAF80400091A4A
:1040B000CAF80810DFF898B0DBF80000818900200A
:1040C00000F078FE0190DBF800004189002000F04C
:1040D00071FE0090DAF808000099884214DB01981C
:1040E000DAF8081088420FDB0298DFF8C4142200C7
:1040F000D2B241F82200DAF80400DFF838172200C3
:10410000D2B241F82200641C6D1CB2E72000C0B29C
:1041100007B0BDE8F08F00004D8D0020438D0020DA
:10412000538D00204C460010E08C0020558D00205F
:10413000208C0020D88C0020DC8C0020208D0020DA
:10414000C4860020388C0020348500202A8D002071
:10415000E48C0020648C002000200010F08C0020F3
:104160002DE9F0470025DFF8E466307801282AD1F0
:10417000DFF8D80B0068DFF8D81B0968884280F0A8
:104180000F82FCF77DFB0020DFF8B01608600120ED
:10419000DFF8BC1608700120DFF8B816087003219C
:1041A000002001F084FA6422A521002001F0ABFA7E
:1041B0000022DFF8A00B0068C189002001F041FB5C
:1041C000C8203070ECE13078C8281FD1FFF72EFBF3
:1041D000DFF880060078002840F0E281DFF8780BF5
:1041E000017811F0F70101700020DFF86416087003
:1041F0000020054908700020DFF8601B0870FFF7F9
:1042000003FE02203070CBE1578D00203078022869
:1042100019D1DFF84C7BFFF7FFFE3870DFF8440B55
:10422000002101700021417097F90000012807DB8F
:104230003878401EDFF87C1308700B203070AFE137
:104240000A203070ACE130780B2813D10520307093
:10425000DFF8140B0068808A002800F0A181002795
:10426000FFF7DCFB010049B20129C0F2998103216B
:10427000317095E13078032824D1DFF8F00A007816
:1042800010F00100002840F08B81FFF743FDDFF8BC
:10429000D80A0068418A002000F08CFDDFF89815EC
:1042A000096808180400DFF8AC0A00688289210058
:1042B000002001F026FC042030700020DFF87C157F
:1042C00008606DE13078042813D1DFF8A00A007887
:1042D00010F0030F40F06481282030700120DFF8D7
:1042E000901A0870DFF8800A0068008BFFF754FD11
:1042F00056E1307828281ED1DFF86C7ADFF83C854B
:10430000D8F800103868008A00F058F9DFF8600A21
:104310000078002840F04481D8F800003968098B03
:10432000884205D3052030700020C8F8000037E12E
:104330000420307034E1307805284AD1DFF82C0AA7
:10434000007810F0030F40F02B81FFF7E3FCDFF85B
:10435000040A00688289DFF8E0040168002001F0A7
:10436000D0FBDFF8509299F90000012826DBDFF836
:1043700040A299F900005AF8207099F900005AF803
:1043800020003F1A3900002000F052FDDFF8B4840D
:10439000D8F80010488299F900005AF82010DFF888
:1043A000940499F9002050F82200091A0C00210009
:1043B000002000F03DFDD8F8001048800120DFF813
:1043C000B0190870062030700020DFF87014086003
:1043D000E6E0307806280FD1DFF89009007810F079
:1043E000030F40F0DD80DFF880090068008FFFF7E1
:1043F000D3FC14203070D3E03078142820D1DFF8BB
:104400006879DFF83884D8F800103868008A00F03E
:10441000D5F8DFF85C190878002840F0C180D8F89A
:1044200000003A68128F904205D30C2030700020B3
:10443000C8F80000B4E00120087006203070AFE03A
:1044400030780C2813D109203070DFF81C0900687F
:10445000808A002800F0A4800027FFF79DFB010060
:1044600049B20129C0F29C800721317098E0307870
:10447000072849D1DFF8F4080078C0F34000C0B243
:10448000002841D1DFF8E0080168898A08291ED197
:10449000DFF8E0080068808B00280FD0DFF8942355
:1044A00043494B685068C3181C00096810684118DC
:1044B000611A042091FBF0F005000EE03C484168D1
:1044C0000068081A022190FBF1F0050005E0006881
:1044D000418A002000F06EFC0500DFF85C030068F4
:1044E000401B0400DFF86C0800688289210000206E
:1044F00001F007FB0120DFF8781808700820307001
:104500000020CE4908604BE0307808280ED1DFF853
:104510005C08007810F0030F42D1DFF84C08006807
:10452000008BFFF739FC1E20307039E030781E28F0
:104530001FD1DFF83478DFF80483D8F8001038682A
:10454000008A00F03BF8DFF828180878002827D107
:10455000D8F800003A68128B904205D309203070D9
:104560000020C8F800001BE001200870082030700F
:1045700016E0307809280DD10E4890F90010012975
:1045800005DB0178491E01700B20307008E00A201D
:10459000307005E030780A2802D100203070FFE743
:1045A000BDE8F087468D0020448C0020408C002020
:1045B000A48300204B8D0020B04400102DE9F04171
:1045C00004000D000026DFF8A8773878012824D1F0
:1045D000DFF89807007810F0030F40F02881DFF82B
:1045E0009817DFF884271068438E0A2043430B6036
:1045F0000B68DFF85C070068C3180B600220387096
:104600001068B0F85600002800F01181DFF8480764
:10461000017851F00801017009E1387802282FD1A2
:10462000DFF82C07DFF8501709680268914280F024
:10463000FE80DFF8481709680068814280F0F78043
:10464000DFF830070068008B002810D0A04615EB7B
:1046500008084146012000F0ADFB0600DFF8F40633
:10466000006802893100012001F04BFA05E0DFF813
:10467000E806817851F00101817003203870D6E09E
:10468000387803283BD1DFF8EC060068008B00285F
:104690001AD0DFF8D8060078C0F34000C0B2002876
:1046A00040F0C580DFF8D816DFF8BC060068428D00
:1046B0000A2042430A600A68DFF8940600688218FC
:1046C0000A6004203870B2E0DFF8B8064078C0B263
:1046D000C009C0B2002800F0AA80DFF8A416DFF8F5
:1046E00088060068428D0A2042430A600A68DFF8A3
:1046F0006006006882180A600420387097E03878F5
:10470000042822D1DFF878060068DFF8441609682B
:10471000884280F08C80DFF85C060068008B0028FF
:104720000AD000200600DFF82C060068C28831009D
:10473000012001F0E6F905E0DFF81C06817811F0B0
:10474000FE0181700520387071E03878052833D17A
:10475000DFF820060068008B002813D0DFF80C0675
:104760000078C0F34000C0B2002860D10620387045
:10477000DFF8DC05006800F598508830DFF8F815A0
:10478000086054E0DFF8FC054078C0F34010C0B288
:1047900000284CD0DFF8E015DFF8CC050068028E69
:1047A0000A2042430A600A68DFF8A40500688218FC
:1047B0000A60072038703AE0387806281ED1DFF802
:1047C000C4050078C0F3C000C0B2002802D00820A1
:1047D00038702CE0DFF8A0050068DFF87415096870
:1047E000884224D20F20DFF8A015A1F84006DFF898
:1047F0009C05417851F01001417018E03878072885
:104800000AD1DFF874050068DFF8441509688842AA
:104810000DD2082038700AE03878082807D1DFF870
:104820003805017811F0F701017000203870BDE8FB
:10483000F081000014820020688C00201C8C002075
:10484000EC8C0020F48C0020188D00204D8D002071
:10485000558D0020448D0020F8B504000025E06847
:10486000012803DA0020DFF808150870DFF800657A
:10487000307801282FD1DFF8F404007810F0030F0E
:1048800040F06382DFF80805017801290BD16168E7
:10489000206860602160626820688218022092FBB4
:1048A000F0F005000CE00078022807D1616820686C
:1048B0004118022091FBF0F0050001E0206805009E
:1048C000DFF89004006882892900002001F019F9BE
:1048D0000220307039E23078022821D1DFF88C04D0
:1048E000007810F0030F0FD0DFF8A814DFF8780479
:1048F0000068428E0A2042430A600A68DFF85004CA
:10490000006882180A6020E2DFF888040068DFF897
:1049100040140968884280F018820320307014E245
:104920003078032828D1DFF828040168DFF81C2438
:1049300012689142C0F009820068DFF840140968EB
:104940008842C0F00282A168012000F033FA05001D
:10495000DFF800040068C2884FF4FA71012001F00A
:10496000D0F81E2030700020DFF82C1408800020C2
:10497000DFF828140870E8E130781E280AD1DFF843
:1049800010040078002802D01F203070DDE10420E0
:104990003070DAE130781F281FD1DFF8D0030078BB
:1049A000C0F34000C0B2002840F0CF81A068DFF81B
:1049B000F0130968498D47183900012000F0FAF911
:1049C0000500DFF89003006802894FF4FA710120B6
:1049D00001F097F820203070B7E1307820283ED1E0
:1049E000DFF888030078C0F34000C0B200280FD081
:1049F000DFF8A013DFF870030068428D0A204243FD
:104A00000A600A68DFF84803006882180A609CE1BF
:104A1000DFF880030068DFF838130968884280F007
:104A20009481DFF88003006805000021002000F079
:104A30003EFE6421002000F052FE6421002000F0C0
:104A40007BFEDFF8100300684189002000F03BFE88
:104A50002900002000F09EFE0420307075E13078BF
:104A600004283DD1DFF80403007810F0030F0CD0C8
:104A7000DFF82013DFF8F0020068428E0A2042437C
:104A80000A60B348006808605FE1DFF80803006867
:104A9000AF490968884280F058810A203070B248D6
:104AA0000068B0F84210E06880B2FBF7D8FDBA4861
:104AB00001880D000088002800F04781A068451992
:104AC0002F00052030703900012000F073F9050037
:104AD000A048006802892900012001F012F834E1A1
:104AE0003078052833D10021A2480068008B0028C7
:104AF00009D09E480078C0F34000C0B200280BD116
:104B00000120010008E09F484078C0B2C009C0B24F
:104B1000002801D0012001000800C0B2002809D0FF
:104B20009C4800688A4A1268904280F00E810620F4
:104B300030700AE1974A8C480068438D0A2043434D
:104B40001360136882480068C3181360FDE0307872
:104B5000062806D161682068FDF73DF9072030700E
:104B6000F3E0307807281CD18048007810F001006D
:104B7000002809D18748006875490968884280F093
:104B8000E48008203070E0E0824977480068428E77
:104B90000A2042430A600A686D48006882180A6069
:104BA000D3E0307808282DD172480068008B0028A7
:104BB00002D109203070C8E0042030707A480188A2
:104BC00001290DD168480068B0F96A603100002001
:104BD00000F0F0F805007548016A69180162B4E058
:104BE0000088022840F0B1805F480068B0F96A6030
:104BF0003100002000F0DEF805006C48016A491B16
:104C00000162A2E03078092817D15A480068008B69
:104C100000280AD055480078C0F34000C0B20028F0
:104C200040F093800A2030708FE04B48817811F07B
:104C3000FE0181700A20307087E030780A2825D183
:104C40004A48007810F0030F40F07F805048007809
:104C5000002818D05348006805000021002000F00B
:104C600026FD6421002000F03AFD6421002000F0C0
:104C700063FD384800684189002000F024FD2900C8
:104C8000002000F087FD0C2030705EE030780C28AA
:104C90001FD13648007810F0030F0AD03D49324842
:104CA0000068428E0A2042430A6029480068086072
:104CB0004BE03848006826490968884245D22548B3
:104CC0000068C2880021012000F01BFF0D20307019
:104CD0003BE030780D2833D126480068008B00284F
:104CE00010D022480078C0F34000C0B200282CD178
:104CF00024480078C0F3C000C0B2002825D00B20A3
:104D0000307022E01F484078C0F34010C0B2002845
:104D100009D0204800680E490968884215D20B2046
:104D20002349087011E01B490F480068028E0A20D1
:104D300042430A600A680648006882180A6004E074
:104D400030780B2801D100203070F1BD348C002068
:104D5000D88C0020E08C0020F08B0020588D0020A3
:104D60004A8D00202A8D0020E48C00204C46001043
:104D70004E8D0020DC8C00206C8C00202C8C0020C0
:104D8000308C0020D88B002000200010B044001090
:104D9000488D0020708C0020288D0020498D002037
:104DA000E88C0020948B00202E8D00207845001088
:104DB0004F8D002038B52DED028B05000C009FEDC6
:104DC0007F8B280080B201280AD1200002F038FA37
:104DD0007C4AD2E9002302F045FA41EC180B0DE0C1
:104DE000280080B2002809D1200002F029FA764A72
:104DF000D2E9002302F036FA41EC180B012C08DB53
:104E000053EC182B0020714902F0FEFA41EC100B14
:104E100007E053EC182B0020714902F0F5FA41EC41
:104E2000100B51EC100B02F0ADFBBDEC028B32BD50
:104E300038B52DED028B05000C009FED608B28002E
:104E400080B201280AD1200002F0FAF95D4AD2E9C5
:104E5000002302F0B5FB41EC180B0DE0280080B2F6
:104E6000002809D1200002F0EBF9574AD2E90023CB
:104E700002F0A6FB41EC180B012C08DB53EC182BBD
:104E80000020524902F0C0FA41EC100B07E053EC4D
:104E9000182B0020524902F0B7FA41EC100B51ECEC
:104EA000100B02F06FFBBDEC028B32BD70B500F051
:104EB0002AFD01F01BFD464C21688860002000F0AF
:104EC0004FFC050029000020FFF7B2FF414E31687A
:104ED000086041480068008B002809D0012000F0DC
:104EE0003FFC050029000120FFF7A2FF3168486060
:104EF0003C4800882168088270BD4FF4FA703A4936
:104F00000880704738B52DED048B334C2068C08B7A
:104F100002F07AFC41EC100B51EC100B0022334BE9
:104F200002F04EFB41EC180B2068008C02F06CFC88
:104F300053EC182B02F044FB41EC180B224D85ED8D
:104F4000008B42F210702168098C90FBF1F023492C
:104F500008802068C08C02F057FC41EC100B51EC2B
:104F6000100B0022214B02F02BFB41EC190B2068A7
:104F7000008D02F049FC53EC192B02F021FB41ECAF
:104F8000190B104C84ED009BD5E900230020002173
:104F900002F048FC03D100201449C5E90001D4E91E
:104FA00000230020002102F03DFC03D100200F4926
:104FB000C4E90001BDEC048B31BD0000000000001D
:104FC00000000000D08B0020C88B00200000E03FD4
:104FD000F48C0020F08C0020DC8C0020188D002048
:104FE0000000E0BF248D00201E8D00200000244022
:104FF00080B5FFF75BFF03F07FFD04F06EFAFEF76C
:10500000BBFB04F057FC05F0CFFA01F0AFFF01BD88
:1050100030B4002000237021002210000B0000B2E9
:105020001BB2984224DADFF8103A100000B253F8AD
:10503000200000281AD0DFF8040ADFF8044A15001F
:105040002DB253F82530B4FBF3F35B1E140024B2E9
:1050500020F8143013001BB230F81300401C40102D
:10506000DFF8E039140024B223F81400521CD4E70E
:10507000692300242000190000B209B2884224DA12
:10508000DFF8C419200000B251F8200000281AD01F
:10509000DFF8B809DFF8B82925002DB251F825103E
:1050A000B2FBF1F1491E220012B220F812102100C9
:1050B00009B230F81100401C4010DFF898192200A6
:1050C00012B221F81200641CD4E730BC7047DFF83C
:1050D00088090068800505D5DFF88009016A491E46
:1050E000016204E0DFF87409016A491C0162DFF81B
:1050F0006C19C88B012860D1886A401E8862886A52
:10510000002810D1DFF858090268520852000260E6
:10511000DFF8300B027812F0FE0202700020C88324
:1051200000208880CBE0C8898A6A904222D2888891
:10513000CA88904280F0C380488A401C4882488ACE
:105140000A899042C0F0BB80002048828888401CB9
:105150008880DFF8E8088A8830F81200DFF8042930
:105160001060DFF8E008898830F81100DFF8F818DF
:105170000860A4E0088A8A88904280F0A080488A6B
:10518000401C4882488A4A899042C0F0988000209A
:1051900048828888401E8880DFF8A0088A8830F816
:1051A0001200DFF8C0281060DFF89808898830F80E
:1051B0001100DFF8B418086081E0888B032823D140
:1051C000DFF8A8080078C0F34000C0B2002818D06B
:1051D000488B401C4883488B032870DBDFF880082D
:1051E0000268520852000260DFF8580A027812F092
:1051F000FE02027000200862002088830020888060
:105200005DE0002048835AE0888B012823D18888FC
:105210004A8890421CD2488A401C4882488A0A899F
:1052200090424CD3002048828888401C8880DFF858
:105230000C088A8830F81200DFF828281060DFF8A0
:105240000408898830F81100DFF81C18086036E07F
:105250000020888333E0888B022830D1088A8A882E
:1052600090421CD2488A401C4882488A4A8990420F
:1052700025D3002048828888401E8880DFF8BC073C
:105280008A8830F81200DFF8DC271060DFF8B407F6
:10529000898830F81100DFF8D01708600FE0DFF8D8
:1052A000C0070268520852000260DFF898090278CD
:1052B00012F0FE0202700020888300208880704770
:1052C000DFF8140A0068800605D5DFF8100A016AC5
:1052D000491C016204E0DFF8040A016A491E016208
:1052E000DFF8F819C88B002860D0886A401E8862F1
:1052F000886A002810D1DFF8E809026852085200D5
:105300000260DFF8E009027812F0FD02027000206E
:1053100088800020C883CBE0C8898A6A904222D264
:105320008888CA88904280F0C380488A401C48829E
:10533000488A0A899042C0F0BB8000204882888851
:10534000401C8880DFF804078A8830F81200DFF8F4
:1053500098291060DFF8FC06898830F81100DFF822
:105360008C190860A4E0088A8A88904280F0A080A6
:10537000488A401C4882488A4A899042C0F09880F6
:10538000002048828888401E8880DFF8C0068A880E
:1053900030F81200DFF850291060DFF8B80689886D
:1053A00030F81100DFF84419086081E0888B032889
:1053B00023D1DFF8B8060078C0F3C000C0B20028DF
:1053C00018D0488B401C4883488B322870DBDFF8AC
:1053D00010090268520852000260DFF808090278DA
:1053E00012F0FD0202700020086200208883002075
:1053F00088805DE0002048835AE0888B012823D113
:1054000088884A8890421CD2488A401C4882488A30
:105410000A8990424CD3002048828888401C8880AA
:10542000DFF828068A8830F81200DFF8BC28106000
:10543000DFF82006898830F81100DFF8B01808601E
:1054400036E00020888333E0888B022830D1088A38
:105450008A8890421CD2488A401C4882488A4A89DD
:10546000904225D3002048828888401E8880DFF83B
:10547000DC058A8830F81200DFF86C281060DFF84D
:10548000D405898830F81100DFF8601808600FE053
:10549000DFF84C080268520852000260DFF8440846
:1054A000027812F0FD0202700020888300208880BC
:1054B000704710B50400200080B2002811D105F01B
:1054C000A4F9DFF898050021C1830321818303211A
:1054D00041800121018200214182002000F013F867
:1054E00010E005F0B6F9DFF8F4070021C1830321CD
:1054F000818301214180002101820021418201201C
:1055000000F001F810BD010089B2002924D1DFF8B4
:105510004C150A8A8A80DFF824258B8832F81320FC
:10552000DFF840351A60DFF81C25898832F8111041
:10553000DFF8342511600021DFF8B4271160DFF8AF
:1055400020150A6852F001020A60DFF898170A78FD
:1055500052F001020A704CE0010089B2012924D105
:10556000DFF878170A8A8A80DFF8E0248B8832F81F
:105570001320DFF874371A60DFF8D824898832F8EE
:105580001110DFF8682711600021DFF8682711602B
:10559000DFF84C170A6852F001020A60DFF844177E
:1055A0000A7852F002020A7023E0010089B202294F
:1055B0001FD1DFF844170A8A8A80DFF890248B888D
:1055C00032F81320DFF820371A60DFF88824898842
:1055D00032F81110DFF814271160DFF820170A687D
:1055E00052F001020A60DFF8FC160A7852F0040259
:1055F0000A70704710B50400606A002817D5606A09
:105600004042A0622088002802D105F0FEF824E084
:105610002088012802D105F01CF91EE0208802280C
:1056200002D105F029F918E00020A06215E0606AB7
:10563000A0622088002802D105F0D5F80DE020886E
:10564000012802D105F0F3F807E02088022802D1F2
:1056500005F011F901E00020A06221896288208A0A
:10566000121A11FB02F0A08161896288208A121A45
:1056700011FB02F0E081208AA08000206082A06AF5
:10568000A189E289511888420ED2A06A21896289D3
:105690005118B0FBF1F0E0806189E288208A121A8B
:1056A00011FB02F0E08101E06088E08010BD0200A3
:1056B00092B2042A06DADFF8482603009BB252F8B9
:1056C000232011827047020092B2042A06DADFF822
:1056D000302603009BB252F823205180704710B44B
:1056E000020092B2042A0CDADFF8142603009BB2FF
:1056F00052F82330198100230400A4B252F8242068
:10570000538210BC704730B403009BB2042B11DAF3
:10571000DFF8EC350400A4B253F8244021810400E2
:10572000A4B253F82440628100240500ADB253F8BE
:1057300025305C8230BC704710B4020092B2042A5B
:105740000CDADFF8BC2503009BB252F823305981F4
:1057500000230400A4B252F82420538210BC7047E6
:1057600001000A0092B2042A07DADFF894250B0040
:105770009BB252F82320126A10007047020092B2C6
:10578000042A06DADFF8782503009BB252F82320BA
:105790001162704770B505000C00280080B2042823
:1057A0002FDADFF85C65280080B256F82000006A26
:1057B000201A290089B256F82110486200202900D9
:1057C00089B256F8211088830020290089B256F842
:1057D00021104882280080B256F82000FFF70AFF07
:1057E000280080B256F82000806A002809D00120E5
:1057F000290089B256F82110C883280080B2FFF72B
:1058000082FE70BD020092B2042A06DADFF8F024AC
:1058100003009BB252F8232011637047010089B244
:1058200004290DDADFF8D814002203009BB251F8E6
:105830002330DA83022203009BB251F823108A83BB
:1058400070472DE9F04107000C001500380080B2C8
:10585000042856DADFF8A8840020390089B258F805
:105860002110C883380080B2002803D0022820D03D
:105870000FD32DE07A48006810F0010006002800E0
:1058800080B2002802D004F0C0FF01E004F0ABFFBA
:105890001EE0DFF84C04006810F00100060028004C
:1058A00080B2002802D004F0D4FF01E004F0BFFF72
:1058B0000EE0DFF84804006810F001000600280040
:1058C00080B2002802D004F0D7FF01E004F0D3FF3B
:1058D0003000C0B2002814D10120390089B258F834
:1058E00021108883380080B258F8200044800020BE
:1058F000390089B258F821104882380080B2FFF789
:1059000002FEBDE8F08156480068C00706D5DFF802
:10591000D403017851F00101017005E0DFF8C40300
:10592000017811F0FE010170DFF8B4030068C007D0
:1059300006D5DFF8B003017851F00201017005E0EF
:10594000DFF8A003017811F0FD010170704738B550
:1059500005000C00280080B204286ADADFF8A013E2
:10596000280080B251F82000006A844204DA28003E
:1059700080B2FFF753FF5CE0280080B251F82000AE
:10598000006A201A2A0092B251F8222050622800A0
:1059900080B251F82000406A2A0092B251F82220C9
:1059A000906200202A0092B251F8222090830020B9
:1059B0002A0092B251F822205082280080B251F879
:1059C000200040882A0092B251F82220D08028007E
:1059D00080B251F820004288280080B251F820009F
:1059E000008A121A280080B251F82000C2812800D3
:1059F00080B251F82000C0892A0092B251F82220CA
:105A0000528910FB02F02A0092B251F82220D08174
:105A1000280080B251F82000C08932302A0092B2AA
:105A200051F82220D08101202A0092B251F8221090
:105A3000C88331BD00000000F45703080040001087
:105A4000008793032C410010B459030858420010FA
:105A5000000E2707844300101414024078450010FC
:105A6000001C00402C1C0040341C0040D88B00203F
:105A7000F8B504000D0016004FF4E177280080B25D
:105A8000032801DA03200500210089B20020FFF776
:105A90000EFE390089B20020FFF721FE390089B2DD
:105AA0000020FFF749FE290089B20020FFF70BFE16
:105AB00031000020FFF76EFEF1BDF8B504000D00C7
:105AC00016006427280080B2032801DA03200500AD
:105AD000210089B20120FFF7EAFD390089B20120D7
